{
  "_format": "hh-sol-artifact-1",
  "contractName": "BuyRecordList",
  "sourceName": "contracts/Campus flea market.sol",
  "abi": [
    {
      "inputs": [
        {
          "internalType": "address",
          "name": "customersOwnerListAddr",
          "type": "address"
        },
        {
          "internalType": "address",
          "name": "customersOwner",
          "type": "address"
        },
        {
          "internalType": "uint256",
          "name": "customerId",
          "type": "uint256"
        },
        {
          "internalType": "address",
          "name": "company",
          "type": "address"
        },
        {
          "internalType": "uint256",
          "name": "commodityId",
          "type": "uint256"
        },
        {
          "internalType": "uint256",
          "name": "number",
          "type": "uint256"
        },
        {
          "internalType": "uint256",
          "name": "price",
          "type": "uint256"
        }
      ],
      "name": "addBuyRecord",
      "outputs": [],
      "stateMutability": "nonpayable",
      "type": "function"
    },
    {
      "inputs": [
        {
          "internalType": "address",
          "name": "companyListAddr",
          "type": "address"
        },
        {
          "internalType": "address",
          "name": "companyAddr",
          "type": "address"
        },
        {
          "internalType": "uint256",
          "name": "recordId",
          "type": "uint256"
        },
        {
          "internalType": "bool",
          "name": "approve",
          "type": "bool"
        }
      ],
      "name": "doBuyRecord",
      "outputs": [],
      "stateMutability": "nonpayable",
      "type": "function"
    },
    {
      "inputs": [
        {
          "internalType": "uint256",
          "name": "recordId",
          "type": "uint256"
        }
      ],
      "name": "getBuyRecordById",
      "outputs": [
        {
          "internalType": "uint256",
          "name": "",
          "type": "uint256"
        },
        {
          "internalType": "address",
          "name": "",
          "type": "address"
        },
        {
          "internalType": "uint256",
          "name": "",
          "type": "uint256"
        },
        {
          "internalType": "address",
          "name": "",
          "type": "address"
        },
        {
          "internalType": "uint256",
          "name": "",
          "type": "uint256"
        },
        {
          "internalType": "uint256",
          "name": "",
          "type": "uint256"
        },
        {
          "internalType": "uint256",
          "name": "",
          "type": "uint256"
        },
        {
          "internalType": "uint256",
          "name": "",
          "type": "uint256"
        },
        {
          "internalType": "uint256",
          "name": "",
          "type": "uint256"
        },
        {
          "internalType": "uint256",
          "name": "",
          "type": "uint256"
        }
      ],
      "stateMutability": "view",
      "type": "function"
    },
    {
      "inputs": [
        {
          "internalType": "address",
          "name": "company",
          "type": "address"
        }
      ],
      "name": "getBuyRecordIdsByCompany",
      "outputs": [
        {
          "internalType": "uint256[]",
          "name": "",
          "type": "uint256[]"
        }
      ],
      "stateMutability": "view",
      "type": "function"
    },
    {
      "inputs": [],
      "name": "getLastBuyRecordId",
      "outputs": [
        {
          "internalType": "uint256",
          "name": "",
          "type": "uint256"
        }
      ],
      "stateMutability": "view",
      "type": "function"
    },
    {
      "inputs": [],
      "name": "getRecordList",
      "outputs": [
        {
          "internalType": "uint256[]",
          "name": "",
          "type": "uint256[]"
        }
      ],
      "stateMutability": "view",
      "type": "function"
    },
    {
      "inputs": [
        {
          "internalType": "uint256",
          "name": "recordId",
          "type": "uint256"
        },
        {
          "internalType": "uint256",
          "name": "newBalance",
          "type": "uint256"
        }
      ],
      "name": "updateBuyRecordBalance",
      "outputs": [],
      "stateMutability": "nonpayable",
      "type": "function"
    }
  ],
  "bytecode": "0x608060405234801561001057600080fd5b50611b47806100206000396000f3fe608060405234801561001057600080fd5b506004361061007d5760003560e01c80636c5100c21161005b5780636c5100c2146100da57806374f4ff3914610113578063a08dd8c414610143578063dde841e01461015f5761007d565b806323c137de146100825780633921d35f1461009e5780635404470b146100bc575b600080fd5b61009c60048036038101906100979190611112565b61017b565b005b6100a661075b565b6040516100b39190611188565b60405180910390f35b6100c4610791565b6040516100d19190611261565b60405180910390f35b6100f460048036038101906100ef9190611283565b6107e9565b60405161010a9a999897969594939291906112bf565b60405180910390f35b61012d6004803603810190610128919061135b565b6108b5565b60405161013a9190611261565b60405180910390f35b61015d60048036038101906101589190611388565b610ab5565b005b610179600480360381019061017491906113c8565b610ada565b005b61018482611014565b6101c3576040517f08c379a00000000000000000000000000000000000000000000000000000000081526004016101ba906114c7565b60405180910390fd5b60008390503373ffffffffffffffffffffffffffffffffffffffff168173ffffffffffffffffffffffffffffffffffffffff16638da5cb5b6040518163ffffffff1660e01b8152600401602060405180830381865afa15801561022a573d6000803e3d6000fd5b505050506040513d601f19601f8201168201806040525081019061024e91906114fc565b73ffffffffffffffffffffffffffffffffffffffff16146102a4576040517f08c379a000000000000000000000000000000000000000000000000000000000815260040161029b90611575565b60405180910390fd5b60008590508073ffffffffffffffffffffffffffffffffffffffff1663a0406ce2866040518263ffffffff1660e01b81526004016102e29190611595565b602060405180830381865afa1580156102ff573d6000803e3d6000fd5b505050506040513d601f19601f8201168201806040525081019061032391906115c5565b610362576040517f08c379a00000000000000000000000000000000000000000000000000000000081526004016103599061163e565b60405180910390fd5b60006001600086815260200190815260200160002090508573ffffffffffffffffffffffffffffffffffffffff168160030160009054906101000a900473ffffffffffffffffffffffffffffffffffffffff1673ffffffffffffffffffffffffffffffffffffffff161461040b576040517f08c379a0000000000000000000000000000000000000000000000000000000008152600401610402906116d0565b60405180910390fd5b6000816008015414610452576040517f08c379a00000000000000000000000000000000000000000000000000000000081526004016104499061173c565b60405180910390fd5b42816007018190555083156105dc578273ffffffffffffffffffffffffffffffffffffffff1663171b018882600901546040518263ffffffff1660e01b815260040161049e9190611775565b600060405180830381600087803b1580156104b857600080fd5b505af11580156104cc573d6000803e3d6000fd5b50505050806009015481600901546104e491906117bf565b81600901819055508273ffffffffffffffffffffffffffffffffffffffff16631be017ec60026040518263ffffffff1660e01b81526004016105269190611838565b600060405180830381600087803b15801561054057600080fd5b505af1158015610554573d6000803e3d6000fd5b50505050600181600801819055508273ffffffffffffffffffffffffffffffffffffffff16636b19e8c7826004015483600501546040518363ffffffff1660e01b81526004016105a5929190611853565b600060405180830381600087803b1580156105bf57600080fd5b505af11580156105d3573d6000803e3d6000fd5b5050505061069c565b60008160010160009054906101000a900473ffffffffffffffffffffffffffffffffffffffff1690508073ffffffffffffffffffffffffffffffffffffffff1663171b018883600901546040518263ffffffff1660e01b81526004016106429190611775565b600060405180830381600087803b15801561065c57600080fd5b505af1158015610670573d6000803e3d6000fd5b505050508160090154826009015461068891906117bf565b826009018190555060028260080181905550505b60186236ee80826006015483600701546106b691906117bf565b6106c091906118ab565b1315610752578273ffffffffffffffffffffffffffffffffffffffff16631be017ec7ffffffffffffffffffffffffffffffffffffffffffffffffffffffffffffffffb6040518263ffffffff1660e01b815260040161071f9190611950565b600060405180830381600087803b15801561073957600080fd5b505af115801561074d573d6000803e3d6000fd5b505050505b50505050505050565b600080600160008054905061077091906117bf565b815481106107815761078061196b565b5b9060005260206000200154905090565b606060008054806020026020016040519081016040528092919081815260200182805480156107df57602002820191906000526020600020905b8154815260200190600101908083116107cb575b5050505050905090565b6000806000806000806000806000806108018b611014565b61080a57600080fd5b6000600160008d8152602001908152602001600020905080600001548160010160009054906101000a900473ffffffffffffffffffffffffffffffffffffffff1682600201548360030160009054906101000a900473ffffffffffffffffffffffffffffffffffffffff168460040154856005015486600601548760070154886008015489600901549a509a509a509a509a509a509a509a509a509a50509193959799509193959799565b60606000805b60008054905081101561096a578373ffffffffffffffffffffffffffffffffffffffff16600160008084815481106108f6576108f561196b565b5b9060005260206000200154815260200190815260200160002060030160009054906101000a900473ffffffffffffffffffffffffffffffffffffffff1673ffffffffffffffffffffffffffffffffffffffff160361095d5781806109599061199a565b9250505b80806001019150506108bb565b5060008167ffffffffffffffff811115610987576109866119e2565b5b6040519080825280602002602001820160405280156109b55781602001602082028036833780820191505090505b5090506000915060005b600080549050811015610aaa578473ffffffffffffffffffffffffffffffffffffffff16600160008084815481106109fa576109f961196b565b5b9060005260206000200154815260200190815260200160002060030160009054906101000a900473ffffffffffffffffffffffffffffffffffffffff1673ffffffffffffffffffffffffffffffffffffffff1603610a9d5760008181548110610a6657610a6561196b565b5b9060005260206000200154828480610a7d9061199a565b955081518110610a9057610a8f61196b565b5b6020026020010181815250505b80806001019150506109bf565b508092505050919050565b6000600160008481526020019081526020016000209050818160090181905550505050565b60008690508073ffffffffffffffffffffffffffffffffffffffff16638da5cb5b6040518163ffffffff1660e01b8152600401602060405180830381865afa158015610b2a573d6000803e3d6000fd5b505050506040513d601f19601f82011682018060405250810190610b4e91906114fc565b73ffffffffffffffffffffffffffffffffffffffff163373ffffffffffffffffffffffffffffffffffffffff1614610b8557600080fd5b60008890508073ffffffffffffffffffffffffffffffffffffffff16634aa42159896040518263ffffffff1660e01b8152600401610bc39190611595565b602060405180830381865afa158015610be0573d6000803e3d6000fd5b505050506040513d601f19601f82011682018060405250810190610c0491906115c5565b610c0d57600080fd5b8383610c199190611a11565b8273ffffffffffffffffffffffffffffffffffffffff166312065fe06040518163ffffffff1660e01b8152600401602060405180830381865afa158015610c64573d6000803e3d6000fd5b505050506040513d601f19601f82011682018060405250810190610c889190611a68565b11610c9257600080fd5b8173ffffffffffffffffffffffffffffffffffffffff1663171b01888585610cba9190611a11565b610cc390611a95565b6040518263ffffffff1660e01b8152600401610cdf9190611775565b600060405180830381600087803b158015610cf957600080fd5b505af1158015610d0d573d6000803e3d6000fd5b5050505060008060008054905011610d26576001610d63565b600160006001600080549050610d3c91906117bf565b81548110610d4d57610d4c61196b565b5b9060005260206000200154610d629190611add565b5b90506000819080600181540180825580915050600190039060005260206000200160009091909190915055806001600083815260200190815260200160002060000181905550886001600083815260200190815260200160002060010160006101000a81548173ffffffffffffffffffffffffffffffffffffffff021916908373ffffffffffffffffffffffffffffffffffffffff160217905550876001600083815260200190815260200160002060020181905550866001600083815260200190815260200160002060030160006101000a81548173ffffffffffffffffffffffffffffffffffffffff021916908373ffffffffffffffffffffffffffffffffffffffff160217905550856001600083815260200190815260200160002060040181905550846001600083815260200190815260200160002060050181905550426001600083815260200190815260200160002060060181905550600060016000838152602001908152602001600020600801819055508484610ee79190611a11565b60016000838152602001908152602001600020600901819055506001806000838152602001908152602001600020600a0160006101000a81548160ff0219169083151502179055508273ffffffffffffffffffffffffffffffffffffffff16631be017ec60026040518263ffffffff1660e01b8152600401610f699190611838565b600060405180830381600087803b158015610f8357600080fd5b505af1158015610f97573d6000803e3d6000fd5b505050508273ffffffffffffffffffffffffffffffffffffffff166322b0f23089836040518363ffffffff1660e01b8152600401610fd6929190611853565b600060405180830381600087803b158015610ff057600080fd5b505af1158015611004573d6000803e3d6000fd5b5050505050505050505050505050565b600060016000838152602001908152602001600020600a0160009054906101000a900460ff169050919050565b600080fd5b600073ffffffffffffffffffffffffffffffffffffffff82169050919050565b600061107182611046565b9050919050565b61108181611066565b811461108c57600080fd5b50565b60008135905061109e81611078565b92915050565b6000819050919050565b6110b7816110a4565b81146110c257600080fd5b50565b6000813590506110d4816110ae565b92915050565b60008115159050919050565b6110ef816110da565b81146110fa57600080fd5b50565b60008135905061110c816110e6565b92915050565b6000806000806080858703121561112c5761112b611041565b5b600061113a8782880161108f565b945050602061114b8782880161108f565b935050604061115c878288016110c5565b925050606061116d878288016110fd565b91505092959194509250565b611182816110a4565b82525050565b600060208201905061119d6000830184611179565b92915050565b600081519050919050565b600082825260208201905092915050565b6000819050602082019050919050565b6111d8816110a4565b82525050565b60006111ea83836111cf565b60208301905092915050565b6000602082019050919050565b600061120e826111a3565b61121881856111ae565b9350611223836111bf565b8060005b8381101561125457815161123b88826111de565b9750611246836111f6565b925050600181019050611227565b5085935050505092915050565b6000602082019050818103600083015261127b8184611203565b905092915050565b60006020828403121561129957611298611041565b5b60006112a7848285016110c5565b91505092915050565b6112b981611066565b82525050565b6000610140820190506112d5600083018d611179565b6112e2602083018c6112b0565b6112ef604083018b611179565b6112fc606083018a6112b0565b6113096080830189611179565b61131660a0830188611179565b61132360c0830187611179565b61133060e0830186611179565b61133e610100830185611179565b61134c610120830184611179565b9b9a5050505050505050505050565b60006020828403121561137157611370611041565b5b600061137f8482850161108f565b91505092915050565b6000806040838503121561139f5761139e611041565b5b60006113ad858286016110c5565b92505060206113be858286016110c5565b9150509250929050565b600080600080600080600060e0888a0312156113e7576113e6611041565b5b60006113f58a828b0161108f565b97505060206114068a828b0161108f565b96505060406114178a828b016110c5565b95505060606114288a828b0161108f565b94505060806114398a828b016110c5565b93505060a061144a8a828b016110c5565b92505060c061145b8a828b016110c5565b91505092959891949750929550565b600082825260208201905092915050565b7f546865207265636f726420646f6573206e6f7420657869737420210000000000600082015250565b60006114b1601b8361146a565b91506114bc8261147b565b602082019050919050565b600060208201905081810360008301526114e0816114a4565b9050919050565b6000815190506114f681611078565b92915050565b60006020828403121561151257611511611041565b5b6000611520848285016114e7565b91505092915050565b7f4163636f756e747320646f6e2774206d61746368202100000000000000000000600082015250565b600061155f60168361146a565b915061156a82611529565b602082019050919050565b6000602082019050818103600083015261158e81611552565b9050919050565b60006020820190506115aa60008301846112b0565b92915050565b6000815190506115bf816110e6565b92915050565b6000602082840312156115db576115da611041565b5b60006115e9848285016115b0565b91505092915050565b7f546865206d65726368616e74206973206e6f74206f6e207265636f7264202100600082015250565b6000611628601f8361146a565b9150611633826115f2565b602082019050919050565b600060208201905081810360008301526116578161161b565b9050919050565b7f54686572652069732061206d69736d61746368206265747765656e207468652060008201527f6d65726368616e74732073656c6c696e67207468652070726f64756374202100602082015250565b60006116ba603f8361146a565b91506116c58261165e565b604082019050919050565b600060208201905081810360008301526116e9816116ad565b9050919050565b7f546865207265636f726420686173206265656e20616363657074656420210000600082015250565b6000611726601e8361146a565b9150611731826116f0565b602082019050919050565b6000602082019050818103600083015261175581611719565b9050919050565b6000819050919050565b61176f8161175c565b82525050565b600060208201905061178a6000830184611766565b92915050565b7f4e487b7100000000000000000000000000000000000000000000000000000000600052601160045260246000fd5b60006117ca826110a4565b91506117d5836110a4565b92508282039050818111156117ed576117ec611790565b5b92915050565b6000819050919050565b6000819050919050565b600061182261181d611818846117f3565b6117fd565b61175c565b9050919050565b61183281611807565b82525050565b600060208201905061184d6000830184611829565b92915050565b60006040820190506118686000830185611179565b6118756020830184611179565b9392505050565b7f4e487b7100000000000000000000000000000000000000000000000000000000600052601260045260246000fd5b60006118b68261175c565b91506118c18361175c565b9250826118d1576118d061187c565b5b600160000383147f80000000000000000000000000000000000000000000000000000000000000008314161561190a57611909611790565b5b828205905092915050565b6000819050919050565b600061193a61193561193084611915565b6117fd565b61175c565b9050919050565b61194a8161191f565b82525050565b60006020820190506119656000830184611941565b92915050565b7f4e487b7100000000000000000000000000000000000000000000000000000000600052603260045260246000fd5b60006119a5826110a4565b91507fffffffffffffffffffffffffffffffffffffffffffffffffffffffffffffffff82036119d7576119d6611790565b5b600182019050919050565b7f4e487b7100000000000000000000000000000000000000000000000000000000600052604160045260246000fd5b6000611a1c826110a4565b9150611a27836110a4565b9250828202611a35816110a4565b91508282048414831517611a4c57611a4b611790565b5b5092915050565b600081519050611a62816110ae565b92915050565b600060208284031215611a7e57611a7d611041565b5b6000611a8c84828501611a53565b91505092915050565b6000611aa08261175c565b91507f80000000000000000000000000000000000000000000000000000000000000008203611ad257611ad1611790565b5b816000039050919050565b6000611ae8826110a4565b9150611af3836110a4565b9250828201905080821115611b0b57611b0a611790565b5b9291505056fea2646970667358221220b4918e71318f6c11597e34e298c809a57e76ee1c0f9516cc455d6e8d8718553c64736f6c63430008180033",
  "linkReferences": {},
  "deployedLinkReferences": {}
}