{
  "_format": "hh-sol-artifact-1",
  "contractName": "Company",
  "sourceName": "contracts/Campus flea market.sol",
  "abi": [
    {
      "inputs": [
        {
          "internalType": "address",
          "name": "_BuyRecordList",
          "type": "address"
        },
        {
          "internalType": "address",
          "name": "_owner",
          "type": "address"
        },
        {
          "internalType": "string",
          "name": "_userName",
          "type": "string"
        },
        {
          "internalType": "string",
          "name": "_password",
          "type": "string"
        },
        {
          "internalType": "string",
          "name": "_phone",
          "type": "string"
        },
        {
          "internalType": "string",
          "name": "_companyNo",
          "type": "string"
        }
      ],
      "stateMutability": "nonpayable",
      "type": "constructor"
    },
    {
      "inputs": [
        {
          "internalType": "string",
          "name": "commodityName",
          "type": "string"
        },
        {
          "internalType": "string",
          "name": "describe",
          "type": "string"
        },
        {
          "internalType": "uint256",
          "name": "number",
          "type": "uint256"
        },
        {
          "internalType": "uint256",
          "name": "price",
          "type": "uint256"
        }
      ],
      "name": "addCommodity",
      "outputs": [],
      "stateMutability": "nonpayable",
      "type": "function"
    },
    {
      "inputs": [],
      "name": "buyRecordList",
      "outputs": [
        {
          "internalType": "address",
          "name": "",
          "type": "address"
        }
      ],
      "stateMutability": "view",
      "type": "function"
    },
    {
      "inputs": [
        {
          "internalType": "uint256",
          "name": "",
          "type": "uint256"
        }
      ],
      "name": "commodityIds",
      "outputs": [
        {
          "internalType": "uint256",
          "name": "",
          "type": "uint256"
        }
      ],
      "stateMutability": "view",
      "type": "function"
    },
    {
      "inputs": [],
      "name": "companyNo",
      "outputs": [
        {
          "internalType": "string",
          "name": "",
          "type": "string"
        }
      ],
      "stateMutability": "view",
      "type": "function"
    },
    {
      "inputs": [],
      "name": "creditwort",
      "outputs": [
        {
          "internalType": "uint256",
          "name": "",
          "type": "uint256"
        }
      ],
      "stateMutability": "view",
      "type": "function"
    },
    {
      "inputs": [],
      "name": "getBalance",
      "outputs": [
        {
          "internalType": "uint256",
          "name": "",
          "type": "uint256"
        }
      ],
      "stateMutability": "view",
      "type": "function"
    },
    {
      "inputs": [],
      "name": "getCommodityIds",
      "outputs": [
        {
          "internalType": "uint256[]",
          "name": "",
          "type": "uint256[]"
        }
      ],
      "stateMutability": "view",
      "type": "function"
    },
    {
      "inputs": [
        {
          "internalType": "uint256",
          "name": "commodityId",
          "type": "uint256"
        }
      ],
      "name": "getCommodityInfoById",
      "outputs": [
        {
          "internalType": "uint256",
          "name": "",
          "type": "uint256"
        },
        {
          "internalType": "string",
          "name": "",
          "type": "string"
        },
        {
          "internalType": "string",
          "name": "",
          "type": "string"
        },
        {
          "internalType": "uint256",
          "name": "",
          "type": "uint256"
        },
        {
          "internalType": "uint256",
          "name": "",
          "type": "uint256"
        },
        {
          "internalType": "uint256",
          "name": "",
          "type": "uint256"
        },
        {
          "internalType": "bool",
          "name": "",
          "type": "bool"
        }
      ],
      "stateMutability": "view",
      "type": "function"
    },
    {
      "inputs": [],
      "name": "getCompanyInfo",
      "outputs": [
        {
          "internalType": "string",
          "name": "",
          "type": "string"
        },
        {
          "internalType": "string",
          "name": "",
          "type": "string"
        },
        {
          "internalType": "string",
          "name": "",
          "type": "string"
        }
      ],
      "stateMutability": "view",
      "type": "function"
    },
    {
      "inputs": [],
      "name": "getCreditwort",
      "outputs": [
        {
          "internalType": "uint256",
          "name": "",
          "type": "uint256"
        }
      ],
      "stateMutability": "view",
      "type": "function"
    },
    {
      "inputs": [],
      "name": "getOwner",
      "outputs": [
        {
          "internalType": "address",
          "name": "",
          "type": "address"
        }
      ],
      "stateMutability": "view",
      "type": "function"
    },
    {
      "inputs": [],
      "name": "getSender",
      "outputs": [
        {
          "internalType": "address",
          "name": "",
          "type": "address"
        }
      ],
      "stateMutability": "view",
      "type": "function"
    },
    {
      "inputs": [
        {
          "internalType": "string",
          "name": "_userName",
          "type": "string"
        },
        {
          "internalType": "string",
          "name": "_phone",
          "type": "string"
        },
        {
          "internalType": "string",
          "name": "_companyNo",
          "type": "string"
        }
      ],
      "name": "modifyCompanyInfo",
      "outputs": [],
      "stateMutability": "nonpayable",
      "type": "function"
    },
    {
      "inputs": [],
      "name": "owner",
      "outputs": [
        {
          "internalType": "address",
          "name": "",
          "type": "address"
        }
      ],
      "stateMutability": "view",
      "type": "function"
    },
    {
      "inputs": [],
      "name": "phone",
      "outputs": [
        {
          "internalType": "string",
          "name": "",
          "type": "string"
        }
      ],
      "stateMutability": "view",
      "type": "function"
    },
    {
      "inputs": [
        {
          "internalType": "string",
          "name": "_pwd",
          "type": "string"
        }
      ],
      "name": "pwdRight",
      "outputs": [
        {
          "internalType": "bool",
          "name": "",
          "type": "bool"
        }
      ],
      "stateMutability": "view",
      "type": "function"
    },
    {
      "inputs": [
        {
          "internalType": "uint256",
          "name": "commodityId",
          "type": "uint256"
        },
        {
          "internalType": "uint256",
          "name": "number",
          "type": "uint256"
        }
      ],
      "name": "setNumber",
      "outputs": [],
      "stateMutability": "nonpayable",
      "type": "function"
    },
    {
      "inputs": [
        {
          "internalType": "uint256",
          "name": "commodityId",
          "type": "uint256"
        },
        {
          "internalType": "bool",
          "name": "onSale",
          "type": "bool"
        }
      ],
      "name": "setOnSale",
      "outputs": [],
      "stateMutability": "nonpayable",
      "type": "function"
    },
    {
      "inputs": [
        {
          "internalType": "int256",
          "name": "increment",
          "type": "int256"
        }
      ],
      "name": "updateBalance",
      "outputs": [],
      "stateMutability": "nonpayable",
      "type": "function"
    },
    {
      "inputs": [
        {
          "internalType": "int256",
          "name": "increment",
          "type": "int256"
        }
      ],
      "name": "updateCreditwort",
      "outputs": [],
      "stateMutability": "nonpayable",
      "type": "function"
    },
    {
      "inputs": [
        {
          "internalType": "string",
          "name": "newPwd",
          "type": "string"
        }
      ],
      "name": "updatePassword",
      "outputs": [],
      "stateMutability": "nonpayable",
      "type": "function"
    },
    {
      "inputs": [],
      "name": "userName",
      "outputs": [
        {
          "internalType": "string",
          "name": "",
          "type": "string"
        }
      ],
      "stateMutability": "view",
      "type": "function"
    }
  ],
  "bytecode": "0x60806040523480156200001157600080fd5b5060405162002c3638038062002c36833981810160405281019062000037919062000328565b846000806101000a81548173ffffffffffffffffffffffffffffffffffffffff021916908373ffffffffffffffffffffffffffffffffffffffff16021790555085600160006101000a81548173ffffffffffffffffffffffffffffffffffffffff021916908373ffffffffffffffffffffffffffffffffffffffff1602179055508360029081620000c991906200068b565b50620000db836200012260201b60201c565b6003819055506127106004819055508160059081620000fb91906200068b565b5080600690816200010d91906200068b565b50606460078190555050505050505062000772565b600060208201519050919050565b6000604051905090565b600080fd5b600080fd5b600073ffffffffffffffffffffffffffffffffffffffff82169050919050565b6000620001718262000144565b9050919050565b620001838162000164565b81146200018f57600080fd5b50565b600081519050620001a38162000178565b92915050565b600080fd5b600080fd5b6000601f19601f8301169050919050565b7f4e487b7100000000000000000000000000000000000000000000000000000000600052604160045260246000fd5b620001fe82620001b3565b810181811067ffffffffffffffff8211171562000220576200021f620001c4565b5b80604052505050565b60006200023562000130565b9050620002438282620001f3565b919050565b600067ffffffffffffffff821115620002665762000265620001c4565b5b6200027182620001b3565b9050602081019050919050565b60005b838110156200029e57808201518184015260208101905062000281565b60008484015250505050565b6000620002c1620002bb8462000248565b62000229565b905082815260208101848484011115620002e057620002df620001ae565b5b620002ed8482856200027e565b509392505050565b600082601f8301126200030d576200030c620001a9565b5b81516200031f848260208601620002aa565b91505092915050565b60008060008060008060c087890312156200034857620003476200013a565b5b60006200035889828a0162000192565b96505060206200036b89828a0162000192565b955050604087015167ffffffffffffffff8111156200038f576200038e6200013f565b5b6200039d89828a01620002f5565b945050606087015167ffffffffffffffff811115620003c157620003c06200013f565b5b620003cf89828a01620002f5565b935050608087015167ffffffffffffffff811115620003f357620003f26200013f565b5b6200040189828a01620002f5565b92505060a087015167ffffffffffffffff8111156200042557620004246200013f565b5b6200043389828a01620002f5565b9150509295509295509295565b600081519050919050565b7f4e487b7100000000000000000000000000000000000000000000000000000000600052602260045260246000fd5b600060028204905060018216806200049357607f821691505b602082108103620004a957620004a86200044b565b5b50919050565b60008190508160005260206000209050919050565b60006020601f8301049050919050565b600082821b905092915050565b600060088302620005137fffffffffffffffffffffffffffffffffffffffffffffffffffffffffffffffff82620004d4565b6200051f8683620004d4565b95508019841693508086168417925050509392505050565b6000819050919050565b6000819050919050565b60006200056c62000566620005608462000537565b62000541565b62000537565b9050919050565b6000819050919050565b62000588836200054b565b620005a0620005978262000573565b848454620004e1565b825550505050565b600090565b620005b7620005a8565b620005c48184846200057d565b505050565b5b81811015620005ec57620005e0600082620005ad565b600181019050620005ca565b5050565b601f8211156200063b576200060581620004af565b6200061084620004c4565b8101602085101562000620578190505b620006386200062f85620004c4565b830182620005c9565b50505b505050565b600082821c905092915050565b6000620006606000198460080262000640565b1980831691505092915050565b60006200067b83836200064d565b9150826002028217905092915050565b620006968262000440565b67ffffffffffffffff811115620006b257620006b1620001c4565b5b620006be82546200047a565b620006cb828285620005f0565b600060209050601f831160018114620007035760008415620006ee578287015190505b620006fa85826200066d565b8655506200076a565b601f1984166200071386620004af565b60005b828110156200073d5784890151825560018201915060208501945060208101905062000716565b868310156200075d578489015162000759601f8916826200064d565b8355505b6001600288020188555050505b505050505050565b6124b480620007826000396000f3fe608060405234801561001057600080fd5b50600436106101425760003560e01c80637550d5a4116100b8578063ab9c89d41161007c578063ab9c89d41461032d578063b2f0651714610349578063ba981ea314610379578063baabbe4f14610397578063d7710d62146103b5578063f3818c29146103d557610142565b80637550d5a414610297578063893d20e8146102b55780638da5cb5b146102d35780639284f497146102f1578063a57438811461030f57610142565b80634afb08a61161010a5780634afb08a6146101d75780634d0a2c24146101f35780635e01eb5a1461020f5780636563ecf71461022d5780636b19e8c71461025d57806370019b351461027957610142565b806312065fe014610147578063171b0188146101655780631be017ec14610181578063364c86c31461019d578063378fdbfc146101bb575b600080fd5b61014f61040b565b60405161015c91906116e6565b60405180910390f35b61017f600480360381019061017a919061174b565b6104fc565b005b61019b6004803603810190610196919061174b565b610649565b005b6101a5610796565b6040516101b29190611836565b60405180910390f35b6101d560048036038101906101d091906119ca565b6107ee565b005b6101f160048036038101906101ec9190611a69565b610a12565b005b61020d60048036038101906102089190611aea565b610ab2565b005b610217610bba565b6040516102249190611b6b565b60405180910390f35b61024760048036038101906102429190611b86565b610ca9565b60405161025491906116e6565b60405180910390f35b61027760048036038101906102729190611bb3565b610ccd565b005b610281610e3b565b60405161028e9190611c72565b60405180910390f35b61029f610ec9565b6040516102ac9190611b6b565b60405180910390f35b6102bd610eef565b6040516102ca9190611b6b565b60405180910390f35b6102db610ffe565b6040516102e89190611b6b565b60405180910390f35b6102f9611022565b6040516103069190611c72565b60405180910390f35b6103176110b0565b6040516103249190611c72565b60405180910390f35b61034760048036038101906103429190611c94565b61113e565b005b610363600480360381019061035e9190611a69565b611201565b6040516103709190611d4a565b60405180910390f35b610381611217565b60405161038e91906116e6565b60405180910390f35b61039f611308565b6040516103ac91906116e6565b60405180910390f35b6103bd61130e565b6040516103cc93929190611d65565b60405180910390f35b6103ef60048036038101906103ea9190611b86565b6114c8565b6040516104029796959493929190611db1565b60405180910390f35b60008060009054906101000a900473ffffffffffffffffffffffffffffffffffffffff1673ffffffffffffffffffffffffffffffffffffffff163373ffffffffffffffffffffffffffffffffffffffff1614806104b55750600160009054906101000a900473ffffffffffffffffffffffffffffffffffffffff1673ffffffffffffffffffffffffffffffffffffffff163373ffffffffffffffffffffffffffffffffffffffff16145b6104f4576040517f08c379a00000000000000000000000000000000000000000000000000000000081526004016104eb90611ea0565b60405180910390fd5b600454905090565b60008054906101000a900473ffffffffffffffffffffffffffffffffffffffff1673ffffffffffffffffffffffffffffffffffffffff163373ffffffffffffffffffffffffffffffffffffffff1614806105a35750600160009054906101000a900473ffffffffffffffffffffffffffffffffffffffff1673ffffffffffffffffffffffffffffffffffffffff163373ffffffffffffffffffffffffffffffffffffffff16145b6105e2576040517f08c379a00000000000000000000000000000000000000000000000000000000081526004016105d990611ea0565b60405180910390fd5b6000816004546105f29190611eef565b13610632576040517f08c379a000000000000000000000000000000000000000000000000000000000815260040161062990611f7f565b60405180910390fd5b806004546106409190611eef565b60048190555050565b60008054906101000a900473ffffffffffffffffffffffffffffffffffffffff1673ffffffffffffffffffffffffffffffffffffffff163373ffffffffffffffffffffffffffffffffffffffff1614806106f05750600160009054906101000a900473ffffffffffffffffffffffffffffffffffffffff1673ffffffffffffffffffffffffffffffffffffffff163373ffffffffffffffffffffffffffffffffffffffff16145b61072f576040517f08c379a000000000000000000000000000000000000000000000000000000000815260040161072690611ea0565b60405180910390fd5b60008160075461073f9190611eef565b1361077f576040517f08c379a000000000000000000000000000000000000000000000000000000000815260040161077690611feb565b60405180910390fd5b8060075461078d9190611eef565b60078190555050565b606060088054806020026020016040519081016040528092919081815260200182805480156107e457602002820191906000526020600020905b8154815260200190600101908083116107d0575b5050505050905090565b3373ffffffffffffffffffffffffffffffffffffffff1660008054906101000a900473ffffffffffffffffffffffffffffffffffffffff1673ffffffffffffffffffffffffffffffffffffffff161461087c576040517f08c379a00000000000000000000000000000000000000000000000000000000081526004016108739061207d565b60405180910390fd5b600080600880549050116108915760016108ce565b6001600860016008805490506108a7919061209d565b815481106108b8576108b76120d1565b5b90600052602060002001546108cd9190612100565b5b90506008819080600181540180825580915050600190039060005260206000200160009091909190915055806009600083815260200190815260200160002060000181905550846009600083815260200190815260200160002060010190816109379190612340565b508360096000838152602001908152602001600020600201908161095b9190612340565b5082600960008381526020019081526020016000206004018190555081600960008381526020019081526020016000206003018190555042600960008381526020019081526020016000206005018190555060016009600083815260200190815260200160002060060160006101000a81548160ff02191690831515021790555060016009600083815260200190815260200160002060060160016101000a81548160ff0219169083151502179055505050505050565b3373ffffffffffffffffffffffffffffffffffffffff1660008054906101000a900473ffffffffffffffffffffffffffffffffffffffff1673ffffffffffffffffffffffffffffffffffffffff1614610aa0576040517f08c379a0000000000000000000000000000000000000000000000000000000008152600401610a979061207d565b60405180910390fd5b610aa981611692565b60038190555050565b3373ffffffffffffffffffffffffffffffffffffffff1660008054906101000a900473ffffffffffffffffffffffffffffffffffffffff1673ffffffffffffffffffffffffffffffffffffffff1614610b40576040517f08c379a0000000000000000000000000000000000000000000000000000000008152600401610b379061207d565b60405180910390fd5b610b49826116a0565b610b88576040517f08c379a0000000000000000000000000000000000000000000000000000000008152600401610b7f9061245e565b60405180910390fd5b806009600084815260200190815260200160002060060160006101000a81548160ff0219169083151502179055505050565b60008060009054906101000a900473ffffffffffffffffffffffffffffffffffffffff1673ffffffffffffffffffffffffffffffffffffffff163373ffffffffffffffffffffffffffffffffffffffff161480610c645750600160009054906101000a900473ffffffffffffffffffffffffffffffffffffffff1673ffffffffffffffffffffffffffffffffffffffff163373ffffffffffffffffffffffffffffffffffffffff16145b610ca3576040517f08c379a0000000000000000000000000000000000000000000000000000000008152600401610c9a90611ea0565b60405180910390fd5b33905090565b60088181548110610cb957600080fd5b906000526020600020016000915090505481565b60008054906101000a900473ffffffffffffffffffffffffffffffffffffffff1673ffffffffffffffffffffffffffffffffffffffff163373ffffffffffffffffffffffffffffffffffffffff161480610d745750600160009054906101000a900473ffffffffffffffffffffffffffffffffffffffff1673ffffffffffffffffffffffffffffffffffffffff163373ffffffffffffffffffffffffffffffffffffffff16145b610db3576040517f08c379a0000000000000000000000000000000000000000000000000000000008152600401610daa90611ea0565b60405180910390fd5b610dbc826116a0565b610dfb576040517f08c379a0000000000000000000000000000000000000000000000000000000008152600401610df29061245e565b60405180910390fd5b806009600084815260200190815260200160002060040154610e1d919061209d565b60096000848152602001908152602001600020600401819055505050565b60028054610e4890612163565b80601f0160208091040260200160405190810160405280929190818152602001828054610e7490612163565b8015610ec15780601f10610e9657610100808354040283529160200191610ec1565b820191906000526020600020905b815481529060010190602001808311610ea457829003601f168201915b505050505081565b600160009054906101000a900473ffffffffffffffffffffffffffffffffffffffff1681565b60008060009054906101000a900473ffffffffffffffffffffffffffffffffffffffff1673ffffffffffffffffffffffffffffffffffffffff163373ffffffffffffffffffffffffffffffffffffffff161480610f995750600160009054906101000a900473ffffffffffffffffffffffffffffffffffffffff1673ffffffffffffffffffffffffffffffffffffffff163373ffffffffffffffffffffffffffffffffffffffff16145b610fd8576040517f08c379a0000000000000000000000000000000000000000000000000000000008152600401610fcf90611ea0565b60405180910390fd5b60008054906101000a900473ffffffffffffffffffffffffffffffffffffffff16905090565b60008054906101000a900473ffffffffffffffffffffffffffffffffffffffff1681565b6005805461102f90612163565b80601f016020809104026020016040519081016040528092919081815260200182805461105b90612163565b80156110a85780601f1061107d576101008083540402835291602001916110a8565b820191906000526020600020905b81548152906001019060200180831161108b57829003601f168201915b505050505081565b600680546110bd90612163565b80601f01602080910402602001604051908101604052809291908181526020018280546110e990612163565b80156111365780601f1061110b57610100808354040283529160200191611136565b820191906000526020600020905b81548152906001019060200180831161111957829003601f168201915b505050505081565b3373ffffffffffffffffffffffffffffffffffffffff1660008054906101000a900473ffffffffffffffffffffffffffffffffffffffff1673ffffffffffffffffffffffffffffffffffffffff16146111cc576040517f08c379a00000000000000000000000000000000000000000000000000000000081526004016111c39061207d565b60405180910390fd5b82600290816111db9190612340565b5081600590816111eb9190612340565b5080600690816111fb9190612340565b50505050565b600061120c82611692565b600354149050919050565b60008060009054906101000a900473ffffffffffffffffffffffffffffffffffffffff1673ffffffffffffffffffffffffffffffffffffffff163373ffffffffffffffffffffffffffffffffffffffff1614806112c15750600160009054906101000a900473ffffffffffffffffffffffffffffffffffffffff1673ffffffffffffffffffffffffffffffffffffffff163373ffffffffffffffffffffffffffffffffffffffff16145b611300576040517f08c379a00000000000000000000000000000000000000000000000000000000081526004016112f790611ea0565b60405180910390fd5b600754905090565b60075481565b606080606060026005600682805461132590612163565b80601f016020809104026020016040519081016040528092919081815260200182805461135190612163565b801561139e5780601f106113735761010080835404028352916020019161139e565b820191906000526020600020905b81548152906001019060200180831161138157829003601f168201915b505050505092508180546113b190612163565b80601f01602080910402602001604051908101604052809291908181526020018280546113dd90612163565b801561142a5780601f106113ff5761010080835404028352916020019161142a565b820191906000526020600020905b81548152906001019060200180831161140d57829003601f168201915b5050505050915080805461143d90612163565b80601f016020809104026020016040519081016040528092919081815260200182805461146990612163565b80156114b65780601f1061148b576101008083540402835291602001916114b6565b820191906000526020600020905b81548152906001019060200180831161149957829003601f168201915b50505050509050925092509250909192565b60006060806000806000806114dc886116a0565b61151b576040517f08c379a00000000000000000000000000000000000000000000000000000000081526004016115129061245e565b60405180910390fd5b6000600960008a81526020019081526020016000209050806000015481600101826002018360040154846003015485600501548660060160009054906101000a900460ff1685805461156c90612163565b80601f016020809104026020016040519081016040528092919081815260200182805461159890612163565b80156115e55780601f106115ba576101008083540402835291602001916115e5565b820191906000526020600020905b8154815290600101906020018083116115c857829003601f168201915b505050505095508480546115f890612163565b80601f016020809104026020016040519081016040528092919081815260200182805461162490612163565b80156116715780601f1061164657610100808354040283529160200191611671565b820191906000526020600020905b81548152906001019060200180831161165457829003601f168201915b50505050509450975097509750975097509750975050919395979092949650565b600060208201519050919050565b60006009600083815260200190815260200160002060060160019054906101000a900460ff169050919050565b6000819050919050565b6116e0816116cd565b82525050565b60006020820190506116fb60008301846116d7565b92915050565b6000604051905090565b600080fd5b600080fd5b6000819050919050565b61172881611715565b811461173357600080fd5b50565b6000813590506117458161171f565b92915050565b6000602082840312156117615761176061170b565b5b600061176f84828501611736565b91505092915050565b600081519050919050565b600082825260208201905092915050565b6000819050602082019050919050565b6117ad816116cd565b82525050565b60006117bf83836117a4565b60208301905092915050565b6000602082019050919050565b60006117e382611778565b6117ed8185611783565b93506117f883611794565b8060005b8381101561182957815161181088826117b3565b975061181b836117cb565b9250506001810190506117fc565b5085935050505092915050565b6000602082019050818103600083015261185081846117d8565b905092915050565b600080fd5b600080fd5b6000601f19601f8301169050919050565b7f4e487b7100000000000000000000000000000000000000000000000000000000600052604160045260246000fd5b6118ab82611862565b810181811067ffffffffffffffff821117156118ca576118c9611873565b5b80604052505050565b60006118dd611701565b90506118e982826118a2565b919050565b600067ffffffffffffffff82111561190957611908611873565b5b61191282611862565b9050602081019050919050565b82818337600083830152505050565b600061194161193c846118ee565b6118d3565b90508281526020810184848401111561195d5761195c61185d565b5b61196884828561191f565b509392505050565b600082601f83011261198557611984611858565b5b813561199584826020860161192e565b91505092915050565b6119a7816116cd565b81146119b257600080fd5b50565b6000813590506119c48161199e565b92915050565b600080600080608085870312156119e4576119e361170b565b5b600085013567ffffffffffffffff811115611a0257611a01611710565b5b611a0e87828801611970565b945050602085013567ffffffffffffffff811115611a2f57611a2e611710565b5b611a3b87828801611970565b9350506040611a4c878288016119b5565b9250506060611a5d878288016119b5565b91505092959194509250565b600060208284031215611a7f57611a7e61170b565b5b600082013567ffffffffffffffff811115611a9d57611a9c611710565b5b611aa984828501611970565b91505092915050565b60008115159050919050565b611ac781611ab2565b8114611ad257600080fd5b50565b600081359050611ae481611abe565b92915050565b60008060408385031215611b0157611b0061170b565b5b6000611b0f858286016119b5565b9250506020611b2085828601611ad5565b9150509250929050565b600073ffffffffffffffffffffffffffffffffffffffff82169050919050565b6000611b5582611b2a565b9050919050565b611b6581611b4a565b82525050565b6000602082019050611b806000830184611b5c565b92915050565b600060208284031215611b9c57611b9b61170b565b5b6000611baa848285016119b5565b91505092915050565b60008060408385031215611bca57611bc961170b565b5b6000611bd8858286016119b5565b9250506020611be9858286016119b5565b9150509250929050565b600081519050919050565b600082825260208201905092915050565b60005b83811015611c2d578082015181840152602081019050611c12565b60008484015250505050565b6000611c4482611bf3565b611c4e8185611bfe565b9350611c5e818560208601611c0f565b611c6781611862565b840191505092915050565b60006020820190508181036000830152611c8c8184611c39565b905092915050565b600080600060608486031215611cad57611cac61170b565b5b600084013567ffffffffffffffff811115611ccb57611cca611710565b5b611cd786828701611970565b935050602084013567ffffffffffffffff811115611cf857611cf7611710565b5b611d0486828701611970565b925050604084013567ffffffffffffffff811115611d2557611d24611710565b5b611d3186828701611970565b9150509250925092565b611d4481611ab2565b82525050565b6000602082019050611d5f6000830184611d3b565b92915050565b60006060820190508181036000830152611d7f8186611c39565b90508181036020830152611d938185611c39565b90508181036040830152611da78184611c39565b9050949350505050565b600060e082019050611dc6600083018a6116d7565b8181036020830152611dd88189611c39565b90508181036040830152611dec8188611c39565b9050611dfb60608301876116d7565b611e0860808301866116d7565b611e1560a08301856116d7565b611e2260c0830184611d3b565b98975050505050505050565b7f4f6e6c79206f776e6572206f722073797374656d20636f6e747261637473206360008201527f616e2063616c6c20746869732066756e6374696f6e0000000000000000000000602082015250565b6000611e8a603583611bfe565b9150611e9582611e2e565b604082019050919050565b60006020820190508181036000830152611eb981611e7d565b9050919050565b7f4e487b7100000000000000000000000000000000000000000000000000000000600052601160045260246000fd5b6000611efa82611715565b9150611f0583611715565b925082820190508281121560008312168382126000841215161715611f2d57611f2c611ec0565b5b92915050565b7f496e76616c69642062616c616e63650000000000000000000000000000000000600082015250565b6000611f69600f83611bfe565b9150611f7482611f33565b602082019050919050565b60006020820190508181036000830152611f9881611f5c565b9050919050565b7f496e76616c696420637265646974776f72740000000000000000000000000000600082015250565b6000611fd5601283611bfe565b9150611fe082611f9f565b602082019050919050565b6000602082019050818103600083015261200481611fc8565b9050919050565b7f4f6e6c79206f776e65722063616e2063616c6c20746869732066756e6374696f60008201527f6e00000000000000000000000000000000000000000000000000000000000000602082015250565b6000612067602183611bfe565b91506120728261200b565b604082019050919050565b600060208201905081810360008301526120968161205a565b9050919050565b60006120a8826116cd565b91506120b3836116cd565b92508282039050818111156120cb576120ca611ec0565b5b92915050565b7f4e487b7100000000000000000000000000000000000000000000000000000000600052603260045260246000fd5b600061210b826116cd565b9150612116836116cd565b925082820190508082111561212e5761212d611ec0565b5b92915050565b7f4e487b7100000000000000000000000000000000000000000000000000000000600052602260045260246000fd5b6000600282049050600182168061217b57607f821691505b60208210810361218e5761218d612134565b5b50919050565b60008190508160005260206000209050919050565b60006020601f8301049050919050565b600082821b905092915050565b6000600883026121f67fffffffffffffffffffffffffffffffffffffffffffffffffffffffffffffffff826121b9565b61220086836121b9565b95508019841693508086168417925050509392505050565b6000819050919050565b600061223d612238612233846116cd565b612218565b6116cd565b9050919050565b6000819050919050565b61225783612222565b61226b61226382612244565b8484546121c6565b825550505050565b600090565b612280612273565b61228b81848461224e565b505050565b5b818110156122af576122a4600082612278565b600181019050612291565b5050565b601f8211156122f4576122c581612194565b6122ce846121a9565b810160208510156122dd578190505b6122f16122e9856121a9565b830182612290565b50505b505050565b600082821c905092915050565b6000612317600019846008026122f9565b1980831691505092915050565b60006123308383612306565b9150826002028217905092915050565b61234982611bf3565b67ffffffffffffffff81111561236257612361611873565b5b61236c8254612163565b6123778282856122b3565b600060209050601f8311600181146123aa5760008415612398578287015190505b6123a28582612324565b86555061240a565b601f1984166123b886612194565b60005b828110156123e0578489015182556001820191506020850194506020810190506123bb565b868310156123fd57848901516123f9601f891682612306565b8355505b6001600288020188555050505b505050505050565b7f436f6d6d6f6469747920646f6573206e6f742065786973740000000000000000600082015250565b6000612448601883611bfe565b915061245382612412565b602082019050919050565b600060208201905081810360008301526124778161243b565b905091905056fea2646970667358221220ae40dd19f31a1f0caa1c10c12f79ef43ae73eeaa362ee3db3ba883503a61b1a364736f6c63430008180033",
  "linkReferences": {},
  "deployedLinkReferences": {}
}