{
  "_format": "hh-sol-artifact-1",
  "contractName": "Company",
  "sourceName": "contracts/Campus flea market.sol",
  "abi": [
    {
      "inputs": [
        {
          "internalType": "address",
          "name": "_BuyRecordList",
          "type": "address"
        },
        {
          "internalType": "address",
          "name": "_owner",
          "type": "address"
        },
        {
          "internalType": "string",
          "name": "_userName",
          "type": "string"
        },
        {
          "internalType": "string",
          "name": "_password",
          "type": "string"
        },
        {
          "internalType": "string",
          "name": "_phone",
          "type": "string"
        },
        {
          "internalType": "string",
          "name": "_companyNo",
          "type": "string"
        }
      ],
      "stateMutability": "nonpayable",
      "type": "constructor"
    },
    {
      "inputs": [
        {
          "internalType": "string",
          "name": "commodityName",
          "type": "string"
        },
        {
          "internalType": "string",
          "name": "describe",
          "type": "string"
        },
        {
          "internalType": "uint256",
          "name": "number",
          "type": "uint256"
        },
        {
          "internalType": "uint256",
          "name": "price",
          "type": "uint256"
        },
        {
          "internalType": "string",
          "name": "imageLink",
          "type": "string"
        }
      ],
      "name": "addCommodity",
      "outputs": [],
      "stateMutability": "nonpayable",
      "type": "function"
    },
    {
      "inputs": [],
      "name": "buyRecordList",
      "outputs": [
        {
          "internalType": "address",
          "name": "",
          "type": "address"
        }
      ],
      "stateMutability": "view",
      "type": "function"
    },
    {
      "inputs": [
        {
          "internalType": "uint256",
          "name": "",
          "type": "uint256"
        }
      ],
      "name": "commodityIds",
      "outputs": [
        {
          "internalType": "uint256",
          "name": "",
          "type": "uint256"
        }
      ],
      "stateMutability": "view",
      "type": "function"
    },
    {
      "inputs": [],
      "name": "companyNo",
      "outputs": [
        {
          "internalType": "string",
          "name": "",
          "type": "string"
        }
      ],
      "stateMutability": "view",
      "type": "function"
    },
    {
      "inputs": [],
      "name": "creditwort",
      "outputs": [
        {
          "internalType": "uint256",
          "name": "",
          "type": "uint256"
        }
      ],
      "stateMutability": "view",
      "type": "function"
    },
    {
      "inputs": [],
      "name": "getBalance",
      "outputs": [
        {
          "internalType": "uint256",
          "name": "",
          "type": "uint256"
        }
      ],
      "stateMutability": "view",
      "type": "function"
    },
    {
      "inputs": [],
      "name": "getCommodityIds",
      "outputs": [
        {
          "internalType": "uint256[]",
          "name": "",
          "type": "uint256[]"
        }
      ],
      "stateMutability": "view",
      "type": "function"
    },
    {
      "inputs": [
        {
          "internalType": "uint256",
          "name": "commodityId",
          "type": "uint256"
        }
      ],
      "name": "getCommodityInfoById",
      "outputs": [
        {
          "internalType": "uint256",
          "name": "",
          "type": "uint256"
        },
        {
          "internalType": "string",
          "name": "",
          "type": "string"
        },
        {
          "internalType": "string",
          "name": "",
          "type": "string"
        },
        {
          "internalType": "uint256",
          "name": "",
          "type": "uint256"
        },
        {
          "internalType": "uint256",
          "name": "",
          "type": "uint256"
        },
        {
          "internalType": "string",
          "name": "",
          "type": "string"
        },
        {
          "internalType": "uint256",
          "name": "",
          "type": "uint256"
        },
        {
          "internalType": "bool",
          "name": "",
          "type": "bool"
        }
      ],
      "stateMutability": "view",
      "type": "function"
    },
    {
      "inputs": [],
      "name": "getCompanyInfo",
      "outputs": [
        {
          "internalType": "string",
          "name": "",
          "type": "string"
        },
        {
          "internalType": "string",
          "name": "",
          "type": "string"
        },
        {
          "internalType": "string",
          "name": "",
          "type": "string"
        }
      ],
      "stateMutability": "view",
      "type": "function"
    },
    {
      "inputs": [],
      "name": "getCreditwort",
      "outputs": [
        {
          "internalType": "uint256",
          "name": "",
          "type": "uint256"
        }
      ],
      "stateMutability": "view",
      "type": "function"
    },
    {
      "inputs": [],
      "name": "getOwner",
      "outputs": [
        {
          "internalType": "address",
          "name": "",
          "type": "address"
        }
      ],
      "stateMutability": "view",
      "type": "function"
    },
    {
      "inputs": [],
      "name": "getSender",
      "outputs": [
        {
          "internalType": "address",
          "name": "",
          "type": "address"
        }
      ],
      "stateMutability": "view",
      "type": "function"
    },
    {
      "inputs": [
        {
          "internalType": "string",
          "name": "_userName",
          "type": "string"
        },
        {
          "internalType": "string",
          "name": "_phone",
          "type": "string"
        },
        {
          "internalType": "string",
          "name": "_companyNo",
          "type": "string"
        }
      ],
      "name": "modifyCompanyInfo",
      "outputs": [],
      "stateMutability": "nonpayable",
      "type": "function"
    },
    {
      "inputs": [],
      "name": "owner",
      "outputs": [
        {
          "internalType": "address",
          "name": "",
          "type": "address"
        }
      ],
      "stateMutability": "view",
      "type": "function"
    },
    {
      "inputs": [],
      "name": "phone",
      "outputs": [
        {
          "internalType": "string",
          "name": "",
          "type": "string"
        }
      ],
      "stateMutability": "view",
      "type": "function"
    },
    {
      "inputs": [
        {
          "internalType": "string",
          "name": "_pwd",
          "type": "string"
        }
      ],
      "name": "pwdRight",
      "outputs": [
        {
          "internalType": "bool",
          "name": "",
          "type": "bool"
        }
      ],
      "stateMutability": "view",
      "type": "function"
    },
    {
      "inputs": [
        {
          "internalType": "uint256",
          "name": "commodityId",
          "type": "uint256"
        },
        {
          "internalType": "uint256",
          "name": "number",
          "type": "uint256"
        }
      ],
      "name": "setNumber",
      "outputs": [],
      "stateMutability": "nonpayable",
      "type": "function"
    },
    {
      "inputs": [
        {
          "internalType": "uint256",
          "name": "commodityId",
          "type": "uint256"
        },
        {
          "internalType": "bool",
          "name": "onSale",
          "type": "bool"
        }
      ],
      "name": "setOnSale",
      "outputs": [],
      "stateMutability": "nonpayable",
      "type": "function"
    },
    {
      "inputs": [
        {
          "internalType": "int256",
          "name": "increment",
          "type": "int256"
        }
      ],
      "name": "updateBalance",
      "outputs": [],
      "stateMutability": "nonpayable",
      "type": "function"
    },
    {
      "inputs": [
        {
          "internalType": "int256",
          "name": "increment",
          "type": "int256"
        }
      ],
      "name": "updateCreditwort",
      "outputs": [],
      "stateMutability": "nonpayable",
      "type": "function"
    },
    {
      "inputs": [
        {
          "internalType": "string",
          "name": "newPwd",
          "type": "string"
        }
      ],
      "name": "updatePassword",
      "outputs": [],
      "stateMutability": "nonpayable",
      "type": "function"
    },
    {
      "inputs": [],
      "name": "userName",
      "outputs": [
        {
          "internalType": "string",
          "name": "",
          "type": "string"
        }
      ],
      "stateMutability": "view",
      "type": "function"
    }
  ],
  "bytecode": "0x60806040523480156200001157600080fd5b5060405162002d3638038062002d36833981810160405281019062000037919062000328565b846000806101000a81548173ffffffffffffffffffffffffffffffffffffffff021916908373ffffffffffffffffffffffffffffffffffffffff16021790555085600160006101000a81548173ffffffffffffffffffffffffffffffffffffffff021916908373ffffffffffffffffffffffffffffffffffffffff1602179055508360029081620000c991906200068b565b50620000db836200012260201b60201c565b6003819055506127106004819055508160059081620000fb91906200068b565b5080600690816200010d91906200068b565b50606460078190555050505050505062000772565b600060208201519050919050565b6000604051905090565b600080fd5b600080fd5b600073ffffffffffffffffffffffffffffffffffffffff82169050919050565b6000620001718262000144565b9050919050565b620001838162000164565b81146200018f57600080fd5b50565b600081519050620001a38162000178565b92915050565b600080fd5b600080fd5b6000601f19601f8301169050919050565b7f4e487b7100000000000000000000000000000000000000000000000000000000600052604160045260246000fd5b620001fe82620001b3565b810181811067ffffffffffffffff8211171562000220576200021f620001c4565b5b80604052505050565b60006200023562000130565b9050620002438282620001f3565b919050565b600067ffffffffffffffff821115620002665762000265620001c4565b5b6200027182620001b3565b9050602081019050919050565b60005b838110156200029e57808201518184015260208101905062000281565b60008484015250505050565b6000620002c1620002bb8462000248565b62000229565b905082815260208101848484011115620002e057620002df620001ae565b5b620002ed8482856200027e565b509392505050565b600082601f8301126200030d576200030c620001a9565b5b81516200031f848260208601620002aa565b91505092915050565b60008060008060008060c087890312156200034857620003476200013a565b5b60006200035889828a0162000192565b96505060206200036b89828a0162000192565b955050604087015167ffffffffffffffff8111156200038f576200038e6200013f565b5b6200039d89828a01620002f5565b945050606087015167ffffffffffffffff811115620003c157620003c06200013f565b5b620003cf89828a01620002f5565b935050608087015167ffffffffffffffff811115620003f357620003f26200013f565b5b6200040189828a01620002f5565b92505060a087015167ffffffffffffffff8111156200042557620004246200013f565b5b6200043389828a01620002f5565b9150509295509295509295565b600081519050919050565b7f4e487b7100000000000000000000000000000000000000000000000000000000600052602260045260246000fd5b600060028204905060018216806200049357607f821691505b602082108103620004a957620004a86200044b565b5b50919050565b60008190508160005260206000209050919050565b60006020601f8301049050919050565b600082821b905092915050565b600060088302620005137fffffffffffffffffffffffffffffffffffffffffffffffffffffffffffffffff82620004d4565b6200051f8683620004d4565b95508019841693508086168417925050509392505050565b6000819050919050565b6000819050919050565b60006200056c62000566620005608462000537565b62000541565b62000537565b9050919050565b6000819050919050565b62000588836200054b565b620005a0620005978262000573565b848454620004e1565b825550505050565b600090565b620005b7620005a8565b620005c48184846200057d565b505050565b5b81811015620005ec57620005e0600082620005ad565b600181019050620005ca565b5050565b601f8211156200063b576200060581620004af565b6200061084620004c4565b8101602085101562000620578190505b620006386200062f85620004c4565b830182620005c9565b50505b505050565b600082821c905092915050565b6000620006606000198460080262000640565b1980831691505092915050565b60006200067b83836200064d565b9150826002028217905092915050565b620006968262000440565b67ffffffffffffffff811115620006b257620006b1620001c4565b5b620006be82546200047a565b620006cb828285620005f0565b600060209050601f831160018114620007035760008415620006ee578287015190505b620006fa85826200066d565b8655506200076a565b601f1984166200071386620004af565b60005b828110156200073d5784890151825560018201915060208501945060208101905062000716565b868310156200075d578489015162000759601f8916826200064d565b8355505b6001600288020188555050505b505050505050565b6125b480620007826000396000f3fe608060405234801561001057600080fd5b50600436106101425760003560e01c80637550d5a4116100b8578063ab9c89d41161007c578063ab9c89d41461032d578063b2f0651714610349578063ba981ea314610379578063baabbe4f14610397578063d7710d62146103b5578063f3818c29146103d557610142565b80637550d5a414610297578063893d20e8146102b55780638da5cb5b146102d35780639284f497146102f1578063a57438811461030f57610142565b80634afb08a61161010a5780634afb08a6146101d75780634d0a2c24146101f35780635e01eb5a1461020f5780636563ecf71461022d5780636b19e8c71461025d57806370019b351461027957610142565b806312065fe014610147578063171b0188146101655780631be017ec14610181578063364c86c31461019d57806346af4f57146101bb575b600080fd5b61014f61040c565b60405161015c91906117a0565b60405180910390f35b61017f600480360381019061017a9190611805565b6104fd565b005b61019b60048036038101906101969190611805565b61064a565b005b6101a5610797565b6040516101b291906118f0565b60405180910390f35b6101d560048036038101906101d09190611a84565b6107ef565b005b6101f160048036038101906101ec9190611b53565b610a38565b005b61020d60048036038101906102089190611bd4565b610ad8565b005b610217610be0565b6040516102249190611c55565b60405180910390f35b61024760048036038101906102429190611c70565b610ccf565b60405161025491906117a0565b60405180910390f35b61027760048036038101906102729190611c9d565b610cf3565b005b610281610e61565b60405161028e9190611d5c565b60405180910390f35b61029f610eef565b6040516102ac9190611c55565b60405180910390f35b6102bd610f15565b6040516102ca9190611c55565b60405180910390f35b6102db611024565b6040516102e89190611c55565b60405180910390f35b6102f9611048565b6040516103069190611d5c565b60405180910390f35b6103176110d6565b6040516103249190611d5c565b60405180910390f35b61034760048036038101906103429190611d7e565b611164565b005b610363600480360381019061035e9190611b53565b611227565b6040516103709190611e34565b60405180910390f35b61038161123d565b60405161038e91906117a0565b60405180910390f35b61039f61132e565b6040516103ac91906117a0565b60405180910390f35b6103bd611334565b6040516103cc93929190611e4f565b60405180910390f35b6103ef60048036038101906103ea9190611c70565b6114ee565b604051610403989796959493929190611e9b565b60405180910390f35b60008060009054906101000a900473ffffffffffffffffffffffffffffffffffffffff1673ffffffffffffffffffffffffffffffffffffffff163373ffffffffffffffffffffffffffffffffffffffff1614806104b65750600160009054906101000a900473ffffffffffffffffffffffffffffffffffffffff1673ffffffffffffffffffffffffffffffffffffffff163373ffffffffffffffffffffffffffffffffffffffff16145b6104f5576040517f08c379a00000000000000000000000000000000000000000000000000000000081526004016104ec90611fa0565b60405180910390fd5b600454905090565b60008054906101000a900473ffffffffffffffffffffffffffffffffffffffff1673ffffffffffffffffffffffffffffffffffffffff163373ffffffffffffffffffffffffffffffffffffffff1614806105a45750600160009054906101000a900473ffffffffffffffffffffffffffffffffffffffff1673ffffffffffffffffffffffffffffffffffffffff163373ffffffffffffffffffffffffffffffffffffffff16145b6105e3576040517f08c379a00000000000000000000000000000000000000000000000000000000081526004016105da90611fa0565b60405180910390fd5b6000816004546105f39190611fef565b13610633576040517f08c379a000000000000000000000000000000000000000000000000000000000815260040161062a9061207f565b60405180910390fd5b806004546106419190611fef565b60048190555050565b60008054906101000a900473ffffffffffffffffffffffffffffffffffffffff1673ffffffffffffffffffffffffffffffffffffffff163373ffffffffffffffffffffffffffffffffffffffff1614806106f15750600160009054906101000a900473ffffffffffffffffffffffffffffffffffffffff1673ffffffffffffffffffffffffffffffffffffffff163373ffffffffffffffffffffffffffffffffffffffff16145b610730576040517f08c379a000000000000000000000000000000000000000000000000000000000815260040161072790611fa0565b60405180910390fd5b6000816007546107409190611fef565b13610780576040517f08c379a0000000000000000000000000000000000000000000000000000000008152600401610777906120eb565b60405180910390fd5b8060075461078e9190611fef565b60078190555050565b606060088054806020026020016040519081016040528092919081815260200182805480156107e557602002820191906000526020600020905b8154815260200190600101908083116107d1575b5050505050905090565b3373ffffffffffffffffffffffffffffffffffffffff1660008054906101000a900473ffffffffffffffffffffffffffffffffffffffff1673ffffffffffffffffffffffffffffffffffffffff161461087d576040517f08c379a00000000000000000000000000000000000000000000000000000000081526004016108749061217d565b60405180910390fd5b600080600880549050116108925760016108cf565b6001600860016008805490506108a8919061219d565b815481106108b9576108b86121d1565b5b90600052602060002001546108ce9190612200565b5b90506008819080600181540180825580915050600190039060005260206000200160009091909190915055806009600083815260200190815260200160002060000181905550856009600083815260200190815260200160002060010190816109389190612440565b508460096000838152602001908152602001600020600201908161095c9190612440565b50836009600083815260200190815260200160002060040181905550826009600083815260200190815260200160002060030181905550816009600083815260200190815260200160002060050190816109b69190612440565b5042600960008381526020019081526020016000206006018190555060016009600083815260200190815260200160002060070160006101000a81548160ff02191690831515021790555060016009600083815260200190815260200160002060070160016101000a81548160ff021916908315150217905550505050505050565b3373ffffffffffffffffffffffffffffffffffffffff1660008054906101000a900473ffffffffffffffffffffffffffffffffffffffff1673ffffffffffffffffffffffffffffffffffffffff1614610ac6576040517f08c379a0000000000000000000000000000000000000000000000000000000008152600401610abd9061217d565b60405180910390fd5b610acf8161174c565b60038190555050565b3373ffffffffffffffffffffffffffffffffffffffff1660008054906101000a900473ffffffffffffffffffffffffffffffffffffffff1673ffffffffffffffffffffffffffffffffffffffff1614610b66576040517f08c379a0000000000000000000000000000000000000000000000000000000008152600401610b5d9061217d565b60405180910390fd5b610b6f8261175a565b610bae576040517f08c379a0000000000000000000000000000000000000000000000000000000008152600401610ba59061255e565b60405180910390fd5b806009600084815260200190815260200160002060070160006101000a81548160ff0219169083151502179055505050565b60008060009054906101000a900473ffffffffffffffffffffffffffffffffffffffff1673ffffffffffffffffffffffffffffffffffffffff163373ffffffffffffffffffffffffffffffffffffffff161480610c8a5750600160009054906101000a900473ffffffffffffffffffffffffffffffffffffffff1673ffffffffffffffffffffffffffffffffffffffff163373ffffffffffffffffffffffffffffffffffffffff16145b610cc9576040517f08c379a0000000000000000000000000000000000000000000000000000000008152600401610cc090611fa0565b60405180910390fd5b33905090565b60088181548110610cdf57600080fd5b906000526020600020016000915090505481565b60008054906101000a900473ffffffffffffffffffffffffffffffffffffffff1673ffffffffffffffffffffffffffffffffffffffff163373ffffffffffffffffffffffffffffffffffffffff161480610d9a5750600160009054906101000a900473ffffffffffffffffffffffffffffffffffffffff1673ffffffffffffffffffffffffffffffffffffffff163373ffffffffffffffffffffffffffffffffffffffff16145b610dd9576040517f08c379a0000000000000000000000000000000000000000000000000000000008152600401610dd090611fa0565b60405180910390fd5b610de28261175a565b610e21576040517f08c379a0000000000000000000000000000000000000000000000000000000008152600401610e189061255e565b60405180910390fd5b806009600084815260200190815260200160002060040154610e43919061219d565b60096000848152602001908152602001600020600401819055505050565b60028054610e6e90612263565b80601f0160208091040260200160405190810160405280929190818152602001828054610e9a90612263565b8015610ee75780601f10610ebc57610100808354040283529160200191610ee7565b820191906000526020600020905b815481529060010190602001808311610eca57829003601f168201915b505050505081565b600160009054906101000a900473ffffffffffffffffffffffffffffffffffffffff1681565b60008060009054906101000a900473ffffffffffffffffffffffffffffffffffffffff1673ffffffffffffffffffffffffffffffffffffffff163373ffffffffffffffffffffffffffffffffffffffff161480610fbf5750600160009054906101000a900473ffffffffffffffffffffffffffffffffffffffff1673ffffffffffffffffffffffffffffffffffffffff163373ffffffffffffffffffffffffffffffffffffffff16145b610ffe576040517f08c379a0000000000000000000000000000000000000000000000000000000008152600401610ff590611fa0565b60405180910390fd5b60008054906101000a900473ffffffffffffffffffffffffffffffffffffffff16905090565b60008054906101000a900473ffffffffffffffffffffffffffffffffffffffff1681565b6005805461105590612263565b80601f016020809104026020016040519081016040528092919081815260200182805461108190612263565b80156110ce5780601f106110a3576101008083540402835291602001916110ce565b820191906000526020600020905b8154815290600101906020018083116110b157829003601f168201915b505050505081565b600680546110e390612263565b80601f016020809104026020016040519081016040528092919081815260200182805461110f90612263565b801561115c5780601f106111315761010080835404028352916020019161115c565b820191906000526020600020905b81548152906001019060200180831161113f57829003601f168201915b505050505081565b3373ffffffffffffffffffffffffffffffffffffffff1660008054906101000a900473ffffffffffffffffffffffffffffffffffffffff1673ffffffffffffffffffffffffffffffffffffffff16146111f2576040517f08c379a00000000000000000000000000000000000000000000000000000000081526004016111e99061217d565b60405180910390fd5b82600290816112019190612440565b5081600590816112119190612440565b5080600690816112219190612440565b50505050565b60006112328261174c565b600354149050919050565b60008060009054906101000a900473ffffffffffffffffffffffffffffffffffffffff1673ffffffffffffffffffffffffffffffffffffffff163373ffffffffffffffffffffffffffffffffffffffff1614806112e75750600160009054906101000a900473ffffffffffffffffffffffffffffffffffffffff1673ffffffffffffffffffffffffffffffffffffffff163373ffffffffffffffffffffffffffffffffffffffff16145b611326576040517f08c379a000000000000000000000000000000000000000000000000000000000815260040161131d90611fa0565b60405180910390fd5b600754905090565b60075481565b606080606060026005600682805461134b90612263565b80601f016020809104026020016040519081016040528092919081815260200182805461137790612263565b80156113c45780601f10611399576101008083540402835291602001916113c4565b820191906000526020600020905b8154815290600101906020018083116113a757829003601f168201915b505050505092508180546113d790612263565b80601f016020809104026020016040519081016040528092919081815260200182805461140390612263565b80156114505780601f1061142557610100808354040283529160200191611450565b820191906000526020600020905b81548152906001019060200180831161143357829003601f168201915b5050505050915080805461146390612263565b80601f016020809104026020016040519081016040528092919081815260200182805461148f90612263565b80156114dc5780601f106114b1576101008083540402835291602001916114dc565b820191906000526020600020905b8154815290600101906020018083116114bf57829003601f168201915b50505050509050925092509250909192565b600060608060008060606000806115048961175a565b611543576040517f08c379a000000000000000000000000000000000000000000000000000000000815260040161153a9061255e565b60405180910390fd5b6000600960008b8152602001908152602001600020905080600001548160010182600201836004015484600301548560050186600601548760070160009054906101000a900460ff1686805461159890612263565b80601f01602080910402602001604051908101604052809291908181526020018280546115c490612263565b80156116115780601f106115e657610100808354040283529160200191611611565b820191906000526020600020905b8154815290600101906020018083116115f457829003601f168201915b5050505050965085805461162490612263565b80601f016020809104026020016040519081016040528092919081815260200182805461165090612263565b801561169d5780601f106116725761010080835404028352916020019161169d565b820191906000526020600020905b81548152906001019060200180831161168057829003601f168201915b505050505095508280546116b090612263565b80601f01602080910402602001604051908101604052809291908181526020018280546116dc90612263565b80156117295780601f106116fe57610100808354040283529160200191611729565b820191906000526020600020905b81548152906001019060200180831161170c57829003601f168201915b505050505092509850985098509850985098509850985050919395975091939597565b600060208201519050919050565b60006009600083815260200190815260200160002060070160019054906101000a900460ff169050919050565b6000819050919050565b61179a81611787565b82525050565b60006020820190506117b56000830184611791565b92915050565b6000604051905090565b600080fd5b600080fd5b6000819050919050565b6117e2816117cf565b81146117ed57600080fd5b50565b6000813590506117ff816117d9565b92915050565b60006020828403121561181b5761181a6117c5565b5b6000611829848285016117f0565b91505092915050565b600081519050919050565b600082825260208201905092915050565b6000819050602082019050919050565b61186781611787565b82525050565b6000611879838361185e565b60208301905092915050565b6000602082019050919050565b600061189d82611832565b6118a7818561183d565b93506118b28361184e565b8060005b838110156118e35781516118ca888261186d565b97506118d583611885565b9250506001810190506118b6565b5085935050505092915050565b6000602082019050818103600083015261190a8184611892565b905092915050565b600080fd5b600080fd5b6000601f19601f8301169050919050565b7f4e487b7100000000000000000000000000000000000000000000000000000000600052604160045260246000fd5b6119658261191c565b810181811067ffffffffffffffff821117156119845761198361192d565b5b80604052505050565b60006119976117bb565b90506119a3828261195c565b919050565b600067ffffffffffffffff8211156119c3576119c261192d565b5b6119cc8261191c565b9050602081019050919050565b82818337600083830152505050565b60006119fb6119f6846119a8565b61198d565b905082815260208101848484011115611a1757611a16611917565b5b611a228482856119d9565b509392505050565b600082601f830112611a3f57611a3e611912565b5b8135611a4f8482602086016119e8565b91505092915050565b611a6181611787565b8114611a6c57600080fd5b50565b600081359050611a7e81611a58565b92915050565b600080600080600060a08688031215611aa057611a9f6117c5565b5b600086013567ffffffffffffffff811115611abe57611abd6117ca565b5b611aca88828901611a2a565b955050602086013567ffffffffffffffff811115611aeb57611aea6117ca565b5b611af788828901611a2a565b9450506040611b0888828901611a6f565b9350506060611b1988828901611a6f565b925050608086013567ffffffffffffffff811115611b3a57611b396117ca565b5b611b4688828901611a2a565b9150509295509295909350565b600060208284031215611b6957611b686117c5565b5b600082013567ffffffffffffffff811115611b8757611b866117ca565b5b611b9384828501611a2a565b91505092915050565b60008115159050919050565b611bb181611b9c565b8114611bbc57600080fd5b50565b600081359050611bce81611ba8565b92915050565b60008060408385031215611beb57611bea6117c5565b5b6000611bf985828601611a6f565b9250506020611c0a85828601611bbf565b9150509250929050565b600073ffffffffffffffffffffffffffffffffffffffff82169050919050565b6000611c3f82611c14565b9050919050565b611c4f81611c34565b82525050565b6000602082019050611c6a6000830184611c46565b92915050565b600060208284031215611c8657611c856117c5565b5b6000611c9484828501611a6f565b91505092915050565b60008060408385031215611cb457611cb36117c5565b5b6000611cc285828601611a6f565b9250506020611cd385828601611a6f565b9150509250929050565b600081519050919050565b600082825260208201905092915050565b60005b83811015611d17578082015181840152602081019050611cfc565b60008484015250505050565b6000611d2e82611cdd565b611d388185611ce8565b9350611d48818560208601611cf9565b611d518161191c565b840191505092915050565b60006020820190508181036000830152611d768184611d23565b905092915050565b600080600060608486031215611d9757611d966117c5565b5b600084013567ffffffffffffffff811115611db557611db46117ca565b5b611dc186828701611a2a565b935050602084013567ffffffffffffffff811115611de257611de16117ca565b5b611dee86828701611a2a565b925050604084013567ffffffffffffffff811115611e0f57611e0e6117ca565b5b611e1b86828701611a2a565b9150509250925092565b611e2e81611b9c565b82525050565b6000602082019050611e496000830184611e25565b92915050565b60006060820190508181036000830152611e698186611d23565b90508181036020830152611e7d8185611d23565b90508181036040830152611e918184611d23565b9050949350505050565b600061010082019050611eb1600083018b611791565b8181036020830152611ec3818a611d23565b90508181036040830152611ed78189611d23565b9050611ee66060830188611791565b611ef36080830187611791565b81810360a0830152611f058186611d23565b9050611f1460c0830185611791565b611f2160e0830184611e25565b9998505050505050505050565b7f4f6e6c79206f776e6572206f722073797374656d20636f6e747261637473206360008201527f616e2063616c6c20746869732066756e6374696f6e0000000000000000000000602082015250565b6000611f8a603583611ce8565b9150611f9582611f2e565b604082019050919050565b60006020820190508181036000830152611fb981611f7d565b9050919050565b7f4e487b7100000000000000000000000000000000000000000000000000000000600052601160045260246000fd5b6000611ffa826117cf565b9150612005836117cf565b92508282019050828112156000831216838212600084121516171561202d5761202c611fc0565b5b92915050565b7f496e76616c69642062616c616e63650000000000000000000000000000000000600082015250565b6000612069600f83611ce8565b915061207482612033565b602082019050919050565b600060208201905081810360008301526120988161205c565b9050919050565b7f496e76616c696420637265646974776f72740000000000000000000000000000600082015250565b60006120d5601283611ce8565b91506120e08261209f565b602082019050919050565b60006020820190508181036000830152612104816120c8565b9050919050565b7f4f6e6c79206f776e65722063616e2063616c6c20746869732066756e6374696f60008201527f6e00000000000000000000000000000000000000000000000000000000000000602082015250565b6000612167602183611ce8565b91506121728261210b565b604082019050919050565b600060208201905081810360008301526121968161215a565b9050919050565b60006121a882611787565b91506121b383611787565b92508282039050818111156121cb576121ca611fc0565b5b92915050565b7f4e487b7100000000000000000000000000000000000000000000000000000000600052603260045260246000fd5b600061220b82611787565b915061221683611787565b925082820190508082111561222e5761222d611fc0565b5b92915050565b7f4e487b7100000000000000000000000000000000000000000000000000000000600052602260045260246000fd5b6000600282049050600182168061227b57607f821691505b60208210810361228e5761228d612234565b5b50919050565b60008190508160005260206000209050919050565b60006020601f8301049050919050565b600082821b905092915050565b6000600883026122f67fffffffffffffffffffffffffffffffffffffffffffffffffffffffffffffffff826122b9565b61230086836122b9565b95508019841693508086168417925050509392505050565b6000819050919050565b600061233d61233861233384611787565b612318565b611787565b9050919050565b6000819050919050565b61235783612322565b61236b61236382612344565b8484546122c6565b825550505050565b600090565b612380612373565b61238b81848461234e565b505050565b5b818110156123af576123a4600082612378565b600181019050612391565b5050565b601f8211156123f4576123c581612294565b6123ce846122a9565b810160208510156123dd578190505b6123f16123e9856122a9565b830182612390565b50505b505050565b600082821c905092915050565b6000612417600019846008026123f9565b1980831691505092915050565b60006124308383612406565b9150826002028217905092915050565b61244982611cdd565b67ffffffffffffffff8111156124625761246161192d565b5b61246c8254612263565b6124778282856123b3565b600060209050601f8311600181146124aa5760008415612498578287015190505b6124a28582612424565b86555061250a565b601f1984166124b886612294565b60005b828110156124e0578489015182556001820191506020850194506020810190506124bb565b868310156124fd57848901516124f9601f891682612406565b8355505b6001600288020188555050505b505050505050565b7f436f6d6d6f6469747920646f6573206e6f742065786973740000000000000000600082015250565b6000612548601883611ce8565b915061255382612512565b602082019050919050565b600060208201905081810360008301526125778161253b565b905091905056fea26469706673582212205acd7a7e5d32a400fc7bbacd8bce0e2f79eb59b7ff4311447125a0f9a8e1deb164736f6c63430008180033",
  "linkReferences": {},
  "deployedLinkReferences": {}
}