{
  "_format": "hh-sol-artifact-1",
  "contractName": "CustomersOwnerList",
  "sourceName": "contracts/Campus flea market.sol",
  "abi": [
    {
      "inputs": [
        {
          "internalType": "address",
          "name": "_BuyRecordList",
          "type": "address"
        },
        {
          "internalType": "string",
          "name": "userName",
          "type": "string"
        },
        {
          "internalType": "string",
          "name": "password",
          "type": "string"
        },
        {
          "internalType": "bool",
          "name": "gender",
          "type": "bool"
        },
        {
          "internalType": "string",
          "name": "phone",
          "type": "string"
        }
      ],
      "name": "createCustomersOwner",
      "outputs": [],
      "stateMutability": "nonpayable",
      "type": "function"
    },
    {
      "inputs": [
        {
          "internalType": "address",
          "name": "",
          "type": "address"
        }
      ],
      "name": "creatorOwnerMap",
      "outputs": [
        {
          "internalType": "address",
          "name": "",
          "type": "address"
        }
      ],
      "stateMutability": "view",
      "type": "function"
    },
    {
      "inputs": [
        {
          "internalType": "uint256",
          "name": "",
          "type": "uint256"
        }
      ],
      "name": "customersOwnerList",
      "outputs": [
        {
          "internalType": "address",
          "name": "",
          "type": "address"
        }
      ],
      "stateMutability": "view",
      "type": "function"
    },
    {
      "inputs": [],
      "name": "getCustomersOwnerList",
      "outputs": [
        {
          "internalType": "address[]",
          "name": "",
          "type": "address[]"
        }
      ],
      "stateMutability": "view",
      "type": "function"
    },
    {
      "inputs": [
        {
          "internalType": "address",
          "name": "ownerAddr",
          "type": "address"
        }
      ],
      "name": "isCustomersOwner",
      "outputs": [
        {
          "internalType": "bool",
          "name": "",
          "type": "bool"
        }
      ],
      "stateMutability": "view",
      "type": "function"
    },
    {
      "inputs": [
        {
          "internalType": "string",
          "name": "userName",
          "type": "string"
        },
        {
          "internalType": "string",
          "name": "password",
          "type": "string"
        }
      ],
      "name": "verifyPwd",
      "outputs": [
        {
          "internalType": "bool",
          "name": "",
          "type": "bool"
        }
      ],
      "stateMutability": "view",
      "type": "function"
    }
  ],
  "bytecode": "0x608060405234801561001057600080fd5b50613a37806100206000396000f3fe60806040523480156200001157600080fd5b50600436106200006a5760003560e01c80634aa42159146200006f5780634e48c0a414620000a55780639e31a3ee14620000db578063a0a4e1051462000111578063b280fd931462000131578063e36676471462000153575b600080fd5b6200008d60048036038101906200008791906200080b565b62000189565b6040516200009c91906200085a565b60405180910390f35b620000c36004803603810190620000bd91906200080b565b62000238565b604051620000d2919062000888565b60405180910390f35b620000f96004803603810190620000f3919062000a07565b6200026b565b6040516200010891906200085a565b60405180910390f35b6200012f600480360381019062000129919062000abd565b6200043d565b005b6200013b620005c0565b6040516200014a919062000c70565b60405180910390f35b6200017160048036038101906200016b919062000ccf565b62000650565b60405162000180919062000888565b60405180910390f35b600080600090505b6000805490508110156200022d5760008181548110620001b657620001b562000d01565b5b9060005260206000200160009054906101000a900473ffffffffffffffffffffffffffffffffffffffff1673ffffffffffffffffffffffffffffffffffffffff168373ffffffffffffffffffffffffffffffffffffffff16036200021f57600191505062000233565b808060010191505062000191565b50600090505b919050565b60016020528060005260406000206000915054906101000a900473ffffffffffffffffffffffffffffffffffffffff1681565b6000803390506200027c8162000690565b15620002bf576040517f08c379a0000000000000000000000000000000000000000000000000000000008152600401620002b69062000db7565b60405180910390fd5b6000600160008373ffffffffffffffffffffffffffffffffffffffff1673ffffffffffffffffffffffffffffffffffffffff16815260200190815260200160002060009054906101000a900473ffffffffffffffffffffffffffffffffffffffff1690506000819050620003aa8173ffffffffffffffffffffffffffffffffffffffff166370019b356040518163ffffffff1660e01b8152600401600060405180830381865afa15801562000378573d6000803e3d6000fd5b505050506040513d6000823e3d601f19601f82011682018060405250810190620003a3919062000e83565b8762000727565b80156200043257508073ffffffffffffffffffffffffffffffffffffffff1663b2f06517866040518263ffffffff1660e01b8152600401620003ed919062000f20565b602060405180830381865afa1580156200040b573d6000803e3d6000fd5b505050506040513d601f19601f8201168201806040525081019062000431919062000f5b565b5b935050505092915050565b60003390506200044d8162000690565b6200048f576040517f08c379a0000000000000000000000000000000000000000000000000000000008152600401620004869062000db7565b60405180910390fd5b6000868287878787604051620004a59062000784565b620004b69695949392919062000f8d565b604051809103906000f080158015620004d3573d6000803e3d6000fd5b5090506000819080600181540180825580915050600190039060005260206000200160009091909190916101000a81548173ffffffffffffffffffffffffffffffffffffffff021916908373ffffffffffffffffffffffffffffffffffffffff16021790555080600160008473ffffffffffffffffffffffffffffffffffffffff1673ffffffffffffffffffffffffffffffffffffffff16815260200190815260200160002060006101000a81548173ffffffffffffffffffffffffffffffffffffffff021916908373ffffffffffffffffffffffffffffffffffffffff16021790555050505050505050565b606060008054806020026020016040519081016040528092919081815260200182805480156200064657602002820191906000526020600020905b8160009054906101000a900473ffffffffffffffffffffffffffffffffffffffff1673ffffffffffffffffffffffffffffffffffffffff1681526020019060010190808311620005fb575b5050505050905090565b600081815481106200066157600080fd5b906000526020600020016000915054906101000a900473ffffffffffffffffffffffffffffffffffffffff1681565b60008073ffffffffffffffffffffffffffffffffffffffff16600160008473ffffffffffffffffffffffffffffffffffffffff1673ffffffffffffffffffffffffffffffffffffffff16815260200190815260200160002060009054906101000a900473ffffffffffffffffffffffffffffffffffffffff1673ffffffffffffffffffffffffffffffffffffffff16149050919050565b6000816040516020016200073c919062001051565b604051602081830303815290604052805190602001208360405160200162000765919062001051565b6040516020818303038152906040528051906020012014905092915050565b612997806200106b83390190565b6000604051905090565b600080fd5b600080fd5b600073ffffffffffffffffffffffffffffffffffffffff82169050919050565b6000620007d382620007a6565b9050919050565b620007e581620007c6565b8114620007f157600080fd5b50565b6000813590506200080581620007da565b92915050565b6000602082840312156200082457620008236200079c565b5b60006200083484828501620007f4565b91505092915050565b60008115159050919050565b62000854816200083d565b82525050565b600060208201905062000871600083018462000849565b92915050565b6200088281620007c6565b82525050565b60006020820190506200089f600083018462000877565b92915050565b600080fd5b600080fd5b6000601f19601f8301169050919050565b7f4e487b7100000000000000000000000000000000000000000000000000000000600052604160045260246000fd5b620008fa82620008af565b810181811067ffffffffffffffff821117156200091c576200091b620008c0565b5b80604052505050565b60006200093162000792565b90506200093f8282620008ef565b919050565b600067ffffffffffffffff821115620009625762000961620008c0565b5b6200096d82620008af565b9050602081019050919050565b82818337600083830152505050565b6000620009a06200099a8462000944565b62000925565b905082815260208101848484011115620009bf57620009be620008aa565b5b620009cc8482856200097a565b509392505050565b600082601f830112620009ec57620009eb620008a5565b5b8135620009fe84826020860162000989565b91505092915050565b6000806040838503121562000a215762000a206200079c565b5b600083013567ffffffffffffffff81111562000a425762000a41620007a1565b5b62000a5085828601620009d4565b925050602083013567ffffffffffffffff81111562000a745762000a73620007a1565b5b62000a8285828601620009d4565b9150509250929050565b62000a97816200083d565b811462000aa357600080fd5b50565b60008135905062000ab78162000a8c565b92915050565b600080600080600060a0868803121562000adc5762000adb6200079c565b5b600062000aec88828901620007f4565b955050602086013567ffffffffffffffff81111562000b105762000b0f620007a1565b5b62000b1e88828901620009d4565b945050604086013567ffffffffffffffff81111562000b425762000b41620007a1565b5b62000b5088828901620009d4565b935050606062000b638882890162000aa6565b925050608086013567ffffffffffffffff81111562000b875762000b86620007a1565b5b62000b9588828901620009d4565b9150509295509295909350565b600081519050919050565b600082825260208201905092915050565b6000819050602082019050919050565b62000bd981620007c6565b82525050565b600062000bed838362000bce565b60208301905092915050565b6000602082019050919050565b600062000c138262000ba2565b62000c1f818562000bad565b935062000c2c8362000bbe565b8060005b8381101562000c6357815162000c47888262000bdf565b975062000c548362000bf9565b92505060018101905062000c30565b5085935050505092915050565b6000602082019050818103600083015262000c8c818462000c06565b905092915050565b6000819050919050565b62000ca98162000c94565b811462000cb557600080fd5b50565b60008135905062000cc98162000c9e565b92915050565b60006020828403121562000ce85762000ce76200079c565b5b600062000cf88482850162000cb8565b91505092915050565b7f4e487b7100000000000000000000000000000000000000000000000000000000600052603260045260246000fd5b600082825260208201905092915050565b7f54686520637573746f6d6572734f776e6572206163636f756e74206973206e6f60008201527f7420726567697374657265642120506c65617365207265676973746572202100602082015250565b600062000d9f603f8362000d30565b915062000dac8262000d41565b604082019050919050565b6000602082019050818103600083015262000dd28162000d90565b9050919050565b60005b8381101562000df957808201518184015260208101905062000ddc565b60008484015250505050565b600062000e1c62000e168462000944565b62000925565b90508281526020810184848401111562000e3b5762000e3a620008aa565b5b62000e4884828562000dd9565b509392505050565b600082601f83011262000e685762000e67620008a5565b5b815162000e7a84826020860162000e05565b91505092915050565b60006020828403121562000e9c5762000e9b6200079c565b5b600082015167ffffffffffffffff81111562000ebd5762000ebc620007a1565b5b62000ecb8482850162000e50565b91505092915050565b600081519050919050565b600062000eec8262000ed4565b62000ef8818562000d30565b935062000f0a81856020860162000dd9565b62000f1581620008af565b840191505092915050565b6000602082019050818103600083015262000f3c818462000edf565b905092915050565b60008151905062000f558162000a8c565b92915050565b60006020828403121562000f745762000f736200079c565b5b600062000f848482850162000f44565b91505092915050565b600060c08201905062000fa4600083018962000877565b62000fb3602083018862000877565b818103604083015262000fc7818762000edf565b9050818103606083015262000fdd818662000edf565b905062000fee608083018562000849565b81810360a083015262001002818462000edf565b9050979650505050505050565b600081905092915050565b6000620010278262000ed4565b6200103381856200100f565b93506200104581856020860162000dd9565b80840191505092915050565b60006200105f82846200101a565b91508190509291505056fe60806040523480156200001157600080fd5b50604051620029973803806200299783398181016040528101906200003791906200036d565b846000806101000a81548173ffffffffffffffffffffffffffffffffffffffff021916908373ffffffffffffffffffffffffffffffffffffffff16021790555085600160006101000a81548173ffffffffffffffffffffffffffffffffffffffff021916908373ffffffffffffffffffffffffffffffffffffffff1602179055508360029081620000c99190620006b1565b50620000db836200012a60201b60201c565b60038190555061271060048190555081600560006101000a81548160ff0219169083151502179055508060069081620001159190620006b1565b50606460088190555050505050505062000798565b600060208201519050919050565b6000604051905090565b600080fd5b600080fd5b600073ffffffffffffffffffffffffffffffffffffffff82169050919050565b600062000179826200014c565b9050919050565b6200018b816200016c565b81146200019757600080fd5b50565b600081519050620001ab8162000180565b92915050565b600080fd5b600080fd5b6000601f19601f8301169050919050565b7f4e487b7100000000000000000000000000000000000000000000000000000000600052604160045260246000fd5b6200020682620001bb565b810181811067ffffffffffffffff82111715620002285762000227620001cc565b5b80604052505050565b60006200023d62000138565b90506200024b8282620001fb565b919050565b600067ffffffffffffffff8211156200026e576200026d620001cc565b5b6200027982620001bb565b9050602081019050919050565b60005b83811015620002a657808201518184015260208101905062000289565b60008484015250505050565b6000620002c9620002c38462000250565b62000231565b905082815260208101848484011115620002e857620002e7620001b6565b5b620002f584828562000286565b509392505050565b600082601f830112620003155762000314620001b1565b5b815162000327848260208601620002b2565b91505092915050565b60008115159050919050565b620003478162000330565b81146200035357600080fd5b50565b60008151905062000367816200033c565b92915050565b60008060008060008060c087890312156200038d576200038c62000142565b5b60006200039d89828a016200019a565b9650506020620003b089828a016200019a565b955050604087015167ffffffffffffffff811115620003d457620003d362000147565b5b620003e289828a01620002fd565b945050606087015167ffffffffffffffff81111562000406576200040562000147565b5b6200041489828a01620002fd565b93505060806200042789828a0162000356565b92505060a087015167ffffffffffffffff8111156200044b576200044a62000147565b5b6200045989828a01620002fd565b9150509295509295509295565b600081519050919050565b7f4e487b7100000000000000000000000000000000000000000000000000000000600052602260045260246000fd5b60006002820490506001821680620004b957607f821691505b602082108103620004cf57620004ce62000471565b5b50919050565b60008190508160005260206000209050919050565b60006020601f8301049050919050565b600082821b905092915050565b600060088302620005397fffffffffffffffffffffffffffffffffffffffffffffffffffffffffffffffff82620004fa565b620005458683620004fa565b95508019841693508086168417925050509392505050565b6000819050919050565b6000819050919050565b6000620005926200058c62000586846200055d565b62000567565b6200055d565b9050919050565b6000819050919050565b620005ae8362000571565b620005c6620005bd8262000599565b84845462000507565b825550505050565b600090565b620005dd620005ce565b620005ea818484620005a3565b505050565b5b81811015620006125762000606600082620005d3565b600181019050620005f0565b5050565b601f82111562000661576200062b81620004d5565b6200063684620004ea565b8101602085101562000646578190505b6200065e6200065585620004ea565b830182620005ef565b50505b505050565b600082821c905092915050565b6000620006866000198460080262000666565b1980831691505092915050565b6000620006a1838362000673565b9150826002028217905092915050565b620006bc8262000466565b67ffffffffffffffff811115620006d857620006d7620001cc565b5b620006e48254620004a0565b620006f182828562000616565b600060209050601f83116001811462000729576000841562000714578287015190505b62000720858262000693565b86555062000790565b601f1984166200073986620004d5565b60005b8281101562000763578489015182556001820191506020850194506020810190506200073c565b868310156200078357848901516200077f601f89168262000673565b8355505b6001600288020188555050505b505050505050565b6121ef80620007a86000396000f3fe608060405234801561001057600080fd5b506004361061012c5760003560e01c80639284f497116100ad578063baabbe4f11610071578063baabbe4f146102f9578063c0abda2a14610317578063c327cde614610347578063ed13ffed14610365578063facf8323146103995761012c565b80639284f49714610253578063aed28b4b14610271578063b2f065171461028f578063b30d7c99146102bf578063ba981ea3146102db5761012c565b80634afb08a6116100f45780634afb08a6146101bf57806370019b35146101db5780637550d5a4146101f957806379caad86146102175780638da5cb5b146102355761012c565b806312065fe014610131578063171b01881461014f578063185a77e61461016b5780631be017ec1461018757806322b0f230146101a3575b600080fd5b6101396103b9565b60405161014691906113cf565b60405180910390f35b61016960048036038101906101649190611434565b6104aa565b005b610185600480360381019061018091906115d3565b6105f8565b005b6101a1600480360381019061019c9190611434565b61081a565b005b6101bd60048036038101906101b8919061165e565b610967565b005b6101d960048036038101906101d4919061169e565b610acf565b005b6101e3610b6f565b6040516101f09190611766565b60405180910390f35b610201610bfd565b60405161020e91906117c9565b60405180910390f35b61021f610c23565b60405161022c91906117ff565b60405180910390f35b61023d610c36565b60405161024a91906117c9565b60405180910390f35b61025b610c5a565b6040516102689190611766565b60405180910390f35b610279610ce8565b60405161028691906118d8565b60405180910390f35b6102a960048036038101906102a4919061169e565b610d40565b6040516102b691906117ff565b60405180910390f35b6102d960048036038101906102d49190611926565b610d56565b005b6102e3610e23565b6040516102f091906113cf565b60405180910390f35b610301610f14565b60405161030e91906113cf565b60405180910390f35b610331600480360381019061032c91906119b1565b610f1a565b60405161033e91906113cf565b60405180910390f35b61034f610f3e565b60405161035c9190611766565b60405180910390f35b61037f600480360381019061037a91906119b1565b610fcc565b6040516103909594939291906119de565b60405180910390f35b6103a161112e565b6040516103b093929190611a3f565b60405180910390f35b60008060009054906101000a900473ffffffffffffffffffffffffffffffffffffffff1673ffffffffffffffffffffffffffffffffffffffff163373ffffffffffffffffffffffffffffffffffffffff1614806104635750600160009054906101000a900473ffffffffffffffffffffffffffffffffffffffff1673ffffffffffffffffffffffffffffffffffffffff163373ffffffffffffffffffffffffffffffffffffffff16145b6104a2576040517f08c379a000000000000000000000000000000000000000000000000000000000815260040161049990611af6565b60405180910390fd5b600454905090565b60008054906101000a900473ffffffffffffffffffffffffffffffffffffffff1673ffffffffffffffffffffffffffffffffffffffff163373ffffffffffffffffffffffffffffffffffffffff1614806105515750600160009054906101000a900473ffffffffffffffffffffffffffffffffffffffff1673ffffffffffffffffffffffffffffffffffffffff163373ffffffffffffffffffffffffffffffffffffffff16145b610590576040517f08c379a000000000000000000000000000000000000000000000000000000000815260040161058790611af6565b60405180910390fd5b6000816004546105a09190611b45565b12156105e1576040517f08c379a00000000000000000000000000000000000000000000000000000000081526004016105d890611bd5565b60405180910390fd5b806004546105ef9190611b45565b60048190555050565b3373ffffffffffffffffffffffffffffffffffffffff1660008054906101000a900473ffffffffffffffffffffffffffffffffffffffff1673ffffffffffffffffffffffffffffffffffffffff1614610686576040517f08c379a000000000000000000000000000000000000000000000000000000000815260040161067d90611c67565b60405180910390fd5b61068f8361126b565b6106ce576040517f08c379a00000000000000000000000000000000000000000000000000000000081526004016106c590611cf9565b60405180910390fd5b600080600980549050116106e3576001610720565b6001600960016009805490506106f99190611d19565b8154811061070a57610709611d4d565b5b906000526020600020015461071f9190611d7c565b5b9050600981908060018154018082558091505060019003906000526020600020016000909190919091505580600a60008381526020019081526020016000206000018190555083600a600083815260200190815260200160002060010190816107899190611fbc565b5082600a600083815260200190815260200160002060020190816107ad9190611fbc565b5081600a6000838152602001908152602001600020600301819055506000600a6000838152602001908152602001600020600401819055506001600a600083815260200190815260200160002060050160006101000a81548160ff02191690831515021790555050505050565b60008054906101000a900473ffffffffffffffffffffffffffffffffffffffff1673ffffffffffffffffffffffffffffffffffffffff163373ffffffffffffffffffffffffffffffffffffffff1614806108c15750600160009054906101000a900473ffffffffffffffffffffffffffffffffffffffff1673ffffffffffffffffffffffffffffffffffffffff163373ffffffffffffffffffffffffffffffffffffffff16145b610900576040517f08c379a00000000000000000000000000000000000000000000000000000000081526004016108f790611af6565b60405180910390fd5b6000816008546109109190611b45565b13610950576040517f08c379a0000000000000000000000000000000000000000000000000000000008152600401610947906120da565b60405180910390fd5b8060085461095e9190611b45565b60088190555050565b60008054906101000a900473ffffffffffffffffffffffffffffffffffffffff1673ffffffffffffffffffffffffffffffffffffffff163373ffffffffffffffffffffffffffffffffffffffff161480610a0e5750600160009054906101000a900473ffffffffffffffffffffffffffffffffffffffff1673ffffffffffffffffffffffffffffffffffffffff163373ffffffffffffffffffffffffffffffffffffffff16145b610a4d576040517f08c379a0000000000000000000000000000000000000000000000000000000008152600401610a4490611af6565b60405180910390fd5b600a600083815260200190815260200160002060050160009054906101000a900460ff16610ab0576040517f08c379a0000000000000000000000000000000000000000000000000000000008152600401610aa790612146565b60405180910390fd5b80600a6000848152602001908152602001600020600401819055505050565b3373ffffffffffffffffffffffffffffffffffffffff1660008054906101000a900473ffffffffffffffffffffffffffffffffffffffff1673ffffffffffffffffffffffffffffffffffffffff1614610b5d576040517f08c379a0000000000000000000000000000000000000000000000000000000008152600401610b5490611c67565b60405180910390fd5b610b668161134f565b60038190555050565b60028054610b7c90611ddf565b80601f0160208091040260200160405190810160405280929190818152602001828054610ba890611ddf565b8015610bf55780601f10610bca57610100808354040283529160200191610bf5565b820191906000526020600020905b815481529060010190602001808311610bd857829003601f168201915b505050505081565b600160009054906101000a900473ffffffffffffffffffffffffffffffffffffffff1681565b600560009054906101000a900460ff1681565b60008054906101000a900473ffffffffffffffffffffffffffffffffffffffff1681565b60068054610c6790611ddf565b80601f0160208091040260200160405190810160405280929190818152602001828054610c9390611ddf565b8015610ce05780601f10610cb557610100808354040283529160200191610ce0565b820191906000526020600020905b815481529060010190602001808311610cc357829003601f168201915b505050505081565b60606009805480602002602001604051908101604052809291908181526020018280548015610d3657602002820191906000526020600020905b815481526020019060010190808311610d22575b5050505050905090565b6000610d4b8261134f565b600354149050919050565b3373ffffffffffffffffffffffffffffffffffffffff1660008054906101000a900473ffffffffffffffffffffffffffffffffffffffff1673ffffffffffffffffffffffffffffffffffffffff1614610de4576040517f08c379a0000000000000000000000000000000000000000000000000000000008152600401610ddb90611c67565b60405180910390fd5b8260029081610df39190611fbc565b5081600560006101000a81548160ff0219169083151502179055508060069081610e1d9190611fbc565b50505050565b60008060009054906101000a900473ffffffffffffffffffffffffffffffffffffffff1673ffffffffffffffffffffffffffffffffffffffff163373ffffffffffffffffffffffffffffffffffffffff161480610ecd5750600160009054906101000a900473ffffffffffffffffffffffffffffffffffffffff1673ffffffffffffffffffffffffffffffffffffffff163373ffffffffffffffffffffffffffffffffffffffff16145b610f0c576040517f08c379a0000000000000000000000000000000000000000000000000000000008152600401610f0390611af6565b60405180910390fd5b600854905090565b60085481565b60098181548110610f2a57600080fd5b906000526020600020016000915090505481565b60078054610f4b90611ddf565b80601f0160208091040260200160405190810160405280929190818152602001828054610f7790611ddf565b8015610fc45780601f10610f9957610100808354040283529160200191610fc4565b820191906000526020600020905b815481529060010190602001808311610fa757829003601f168201915b505050505081565b60006060806000806000600a60008881526020019081526020016000209050806000015481600101826002018360030154846004015483805461100e90611ddf565b80601f016020809104026020016040519081016040528092919081815260200182805461103a90611ddf565b80156110875780601f1061105c57610100808354040283529160200191611087565b820191906000526020600020905b81548152906001019060200180831161106a57829003601f168201915b5050505050935082805461109a90611ddf565b80601f01602080910402602001604051908101604052809291908181526020018280546110c690611ddf565b80156111135780601f106110e857610100808354040283529160200191611113565b820191906000526020600020905b8154815290600101906020018083116110f657829003601f168201915b50505050509250955095509550955095505091939590929450565b6060600060606002600560009054906101000a900460ff16600682805461115490611ddf565b80601f016020809104026020016040519081016040528092919081815260200182805461118090611ddf565b80156111cd5780601f106111a2576101008083540402835291602001916111cd565b820191906000526020600020905b8154815290600101906020018083116111b057829003601f168201915b505050505092508080546111e090611ddf565b80601f016020809104026020016040519081016040528092919081815260200182805461120c90611ddf565b80156112595780601f1061122e57610100808354040283529160200191611259565b820191906000526020600020905b81548152906001019060200180831161123c57829003601f168201915b50505050509050925092509250909192565b600080600090505b60098054905081101561134457611328600a600083815260200190815260200160002060010180546112a490611ddf565b80601f01602080910402602001604051908101604052809291908181526020018280546112d090611ddf565b801561131d5780601f106112f25761010080835404028352916020019161131d565b820191906000526020600020905b81548152906001019060200180831161130057829003601f168201915b50505050508461135d565b1561133757600091505061134a565b8080600101915050611273565b50600190505b919050565b600060208201519050919050565b60008160405160200161137091906121a2565b604051602081830303815290604052805190602001208360405160200161139791906121a2565b6040516020818303038152906040528051906020012014905092915050565b6000819050919050565b6113c9816113b6565b82525050565b60006020820190506113e460008301846113c0565b92915050565b6000604051905090565b600080fd5b600080fd5b6000819050919050565b611411816113fe565b811461141c57600080fd5b50565b60008135905061142e81611408565b92915050565b60006020828403121561144a576114496113f4565b5b60006114588482850161141f565b91505092915050565b600080fd5b600080fd5b6000601f19601f8301169050919050565b7f4e487b7100000000000000000000000000000000000000000000000000000000600052604160045260246000fd5b6114b48261146b565b810181811067ffffffffffffffff821117156114d3576114d261147c565b5b80604052505050565b60006114e66113ea565b90506114f282826114ab565b919050565b600067ffffffffffffffff8211156115125761151161147c565b5b61151b8261146b565b9050602081019050919050565b82818337600083830152505050565b600061154a611545846114f7565b6114dc565b90508281526020810184848401111561156657611565611466565b5b611571848285611528565b509392505050565b600082601f83011261158e5761158d611461565b5b813561159e848260208601611537565b91505092915050565b6115b0816113b6565b81146115bb57600080fd5b50565b6000813590506115cd816115a7565b92915050565b6000806000606084860312156115ec576115eb6113f4565b5b600084013567ffffffffffffffff81111561160a576116096113f9565b5b61161686828701611579565b935050602084013567ffffffffffffffff811115611637576116366113f9565b5b61164386828701611579565b9250506040611654868287016115be565b9150509250925092565b60008060408385031215611675576116746113f4565b5b6000611683858286016115be565b9250506020611694858286016115be565b9150509250929050565b6000602082840312156116b4576116b36113f4565b5b600082013567ffffffffffffffff8111156116d2576116d16113f9565b5b6116de84828501611579565b91505092915050565b600081519050919050565b600082825260208201905092915050565b60005b83811015611721578082015181840152602081019050611706565b60008484015250505050565b6000611738826116e7565b61174281856116f2565b9350611752818560208601611703565b61175b8161146b565b840191505092915050565b60006020820190508181036000830152611780818461172d565b905092915050565b600073ffffffffffffffffffffffffffffffffffffffff82169050919050565b60006117b382611788565b9050919050565b6117c3816117a8565b82525050565b60006020820190506117de60008301846117ba565b92915050565b60008115159050919050565b6117f9816117e4565b82525050565b600060208201905061181460008301846117f0565b92915050565b600081519050919050565b600082825260208201905092915050565b6000819050602082019050919050565b61184f816113b6565b82525050565b60006118618383611846565b60208301905092915050565b6000602082019050919050565b60006118858261181a565b61188f8185611825565b935061189a83611836565b8060005b838110156118cb5781516118b28882611855565b97506118bd8361186d565b92505060018101905061189e565b5085935050505092915050565b600060208201905081810360008301526118f2818461187a565b905092915050565b611903816117e4565b811461190e57600080fd5b50565b600081359050611920816118fa565b92915050565b60008060006060848603121561193f5761193e6113f4565b5b600084013567ffffffffffffffff81111561195d5761195c6113f9565b5b61196986828701611579565b935050602061197a86828701611911565b925050604084013567ffffffffffffffff81111561199b5761199a6113f9565b5b6119a786828701611579565b9150509250925092565b6000602082840312156119c7576119c66113f4565b5b60006119d5848285016115be565b91505092915050565b600060a0820190506119f360008301886113c0565b8181036020830152611a05818761172d565b90508181036040830152611a19818661172d565b9050611a2860608301856113c0565b611a3560808301846113c0565b9695505050505050565b60006060820190508181036000830152611a59818661172d565b9050611a6860208301856117f0565b8181036040830152611a7a818461172d565b9050949350505050565b7f4f6e6c79206f776e6572206f722073797374656d20636f6e747261637473206360008201527f616e2063616c6c20746869732066756e6374696f6e0000000000000000000000602082015250565b6000611ae06035836116f2565b9150611aeb82611a84565b604082019050919050565b60006020820190508181036000830152611b0f81611ad3565b9050919050565b7f4e487b7100000000000000000000000000000000000000000000000000000000600052601160045260246000fd5b6000611b50826113fe565b9150611b5b836113fe565b925082820190508281121560008312168382126000841215161715611b8357611b82611b16565b5b92915050565b7f496e73756666696369656e742062616c616e6365000000000000000000000000600082015250565b6000611bbf6014836116f2565b9150611bca82611b89565b602082019050919050565b60006020820190508181036000830152611bee81611bb2565b9050919050565b7f4f6e6c79206f776e65722063616e2063616c6c20746869732066756e6374696f60008201527f6e00000000000000000000000000000000000000000000000000000000000000602082015250565b6000611c516021836116f2565b9150611c5c82611bf5565b604082019050919050565b60006020820190508181036000830152611c8081611c44565b9050919050565b7f546865206e756d62657220616c7265616479206578697374732c20706c65617360008201527f652072652d656e74657220697420210000000000000000000000000000000000602082015250565b6000611ce3602f836116f2565b9150611cee82611c87565b604082019050919050565b60006020820190508181036000830152611d1281611cd6565b9050919050565b6000611d24826113b6565b9150611d2f836113b6565b9250828203905081811115611d4757611d46611b16565b5b92915050565b7f4e487b7100000000000000000000000000000000000000000000000000000000600052603260045260246000fd5b6000611d87826113b6565b9150611d92836113b6565b9250828201905080821115611daa57611da9611b16565b5b92915050565b7f4e487b7100000000000000000000000000000000000000000000000000000000600052602260045260246000fd5b60006002820490506001821680611df757607f821691505b602082108103611e0a57611e09611db0565b5b50919050565b60008190508160005260206000209050919050565b60006020601f8301049050919050565b600082821b905092915050565b600060088302611e727fffffffffffffffffffffffffffffffffffffffffffffffffffffffffffffffff82611e35565b611e7c8683611e35565b95508019841693508086168417925050509392505050565b6000819050919050565b6000611eb9611eb4611eaf846113b6565b611e94565b6113b6565b9050919050565b6000819050919050565b611ed383611e9e565b611ee7611edf82611ec0565b848454611e42565b825550505050565b600090565b611efc611eef565b611f07818484611eca565b505050565b5b81811015611f2b57611f20600082611ef4565b600181019050611f0d565b5050565b601f821115611f7057611f4181611e10565b611f4a84611e25565b81016020851015611f59578190505b611f6d611f6585611e25565b830182611f0c565b50505b505050565b600082821c905092915050565b6000611f9360001984600802611f75565b1980831691505092915050565b6000611fac8383611f82565b9150826002028217905092915050565b611fc5826116e7565b67ffffffffffffffff811115611fde57611fdd61147c565b5b611fe88254611ddf565b611ff3828285611f2f565b600060209050601f8311600181146120265760008415612014578287015190505b61201e8582611fa0565b865550612086565b601f19841661203486611e10565b60005b8281101561205c57848901518255600182019150602085019450602081019050612037565b868310156120795784890151612075601f891682611f82565b8355505b6001600288020188555050505b505050505050565b7f496e76616c696420637265646974776f72740000000000000000000000000000600082015250565b60006120c46012836116f2565b91506120cf8261208e565b602082019050919050565b600060208201905081810360008301526120f3816120b7565b9050919050565b7f437573746f6d6572206973206e6f742076616c69640000000000000000000000600082015250565b60006121306015836116f2565b915061213b826120fa565b602082019050919050565b6000602082019050818103600083015261215f81612123565b9050919050565b600081905092915050565b600061217c826116e7565b6121868185612166565b9350612196818560208601611703565b80840191505092915050565b60006121ae8284612171565b91508190509291505056fea26469706673582212209be7e1cf5806d56e7144dc98a016a1b265b24d30780592501693ed9a58c711a864736f6c63430008180033a2646970667358221220eee7a6910fabf8731158db4b6019bb78ff9eee2f654a4cd7fb2ecbac4ab3098164736f6c63430008180033",
  "linkReferences": {},
  "deployedLinkReferences": {}
}